{
  "contractName": "Escrow",
  "abi": [
    {
      "inputs": [],
      "stateMutability": "nonpayable",
      "type": "constructor"
    },
    {
      "inputs": [],
      "name": "AccessControlBadConfirmation",
      "type": "error"
    },
    {
      "inputs": [
        {
          "internalType": "address",
          "name": "account",
          "type": "address"
        },
        {
          "internalType": "bytes32",
          "name": "neededRole",
          "type": "bytes32"
        }
      ],
      "name": "AccessControlUnauthorizedAccount",
      "type": "error"
    },
    {
      "anonymous": false,
      "inputs": [
        {
          "indexed": true,
          "internalType": "address",
          "name": "conta",
          "type": "address"
        },
        {
          "indexed": true,
          "internalType": "enum Escrow.SituacaoPermissao",
          "name": "status",
          "type": "uint8"
        }
      ],
      "name": "EventoPermissaoFornecedor",
      "type": "event"
    },
    {
      "anonymous": false,
      "inputs": [
        {
          "indexed": true,
          "internalType": "address",
          "name": "fornecedor",
          "type": "address"
        },
        {
          "indexed": false,
          "internalType": "uint256",
          "name": "itemId",
          "type": "uint256"
        },
        {
          "indexed": false,
          "internalType": "string",
          "name": "descricao",
          "type": "string"
        },
        {
          "indexed": false,
          "internalType": "uint256",
          "name": "valor",
          "type": "uint256"
        },
        {
          "indexed": false,
          "internalType": "uint256",
          "name": "quantidade",
          "type": "uint256"
        }
      ],
      "name": "ItemAdicionado",
      "type": "event"
    },
    {
      "anonymous": false,
      "inputs": [
        {
          "indexed": true,
          "internalType": "uint256",
          "name": "pedidoId",
          "type": "uint256"
        },
        {
          "indexed": true,
          "internalType": "address",
          "name": "comprador",
          "type": "address"
        },
        {
          "indexed": true,
          "internalType": "address",
          "name": "fornecedor",
          "type": "address"
        },
        {
          "indexed": false,
          "internalType": "uint256",
          "name": "itemId",
          "type": "uint256"
        },
        {
          "indexed": false,
          "internalType": "uint256",
          "name": "valorPago",
          "type": "uint256"
        }
      ],
      "name": "ItemComprado",
      "type": "event"
    },
    {
      "anonymous": false,
      "inputs": [
        {
          "indexed": true,
          "internalType": "uint256",
          "name": "pedidoId",
          "type": "uint256"
        },
        {
          "indexed": true,
          "internalType": "address",
          "name": "comprador",
          "type": "address"
        },
        {
          "indexed": true,
          "internalType": "address",
          "name": "fornecedor",
          "type": "address"
        },
        {
          "indexed": false,
          "internalType": "enum Escrow.SituacaoPedido",
          "name": "situacao",
          "type": "uint8"
        }
      ],
      "name": "PedidoEntregue",
      "type": "event"
    },
    {
      "anonymous": false,
      "inputs": [
        {
          "indexed": true,
          "internalType": "address",
          "name": "fornecedor",
          "type": "address"
        },
        {
          "indexed": false,
          "internalType": "uint256",
          "name": "valor",
          "type": "uint256"
        }
      ],
      "name": "PedidoFinalizado",
      "type": "event"
    },
    {
      "anonymous": false,
      "inputs": [
        {
          "indexed": true,
          "internalType": "uint256",
          "name": "pedidoId",
          "type": "uint256"
        },
        {
          "indexed": true,
          "internalType": "address",
          "name": "comprador",
          "type": "address"
        },
        {
          "indexed": true,
          "internalType": "address",
          "name": "fornecedor",
          "type": "address"
        },
        {
          "indexed": false,
          "internalType": "enum Escrow.SituacaoPedido",
          "name": "situacao",
          "type": "uint8"
        }
      ],
      "name": "PedidoRecebido",
      "type": "event"
    },
    {
      "anonymous": false,
      "inputs": [
        {
          "indexed": true,
          "internalType": "bytes32",
          "name": "role",
          "type": "bytes32"
        },
        {
          "indexed": true,
          "internalType": "bytes32",
          "name": "previousAdminRole",
          "type": "bytes32"
        },
        {
          "indexed": true,
          "internalType": "bytes32",
          "name": "newAdminRole",
          "type": "bytes32"
        }
      ],
      "name": "RoleAdminChanged",
      "type": "event"
    },
    {
      "anonymous": false,
      "inputs": [
        {
          "indexed": true,
          "internalType": "bytes32",
          "name": "role",
          "type": "bytes32"
        },
        {
          "indexed": true,
          "internalType": "address",
          "name": "account",
          "type": "address"
        },
        {
          "indexed": true,
          "internalType": "address",
          "name": "sender",
          "type": "address"
        }
      ],
      "name": "RoleGranted",
      "type": "event"
    },
    {
      "anonymous": false,
      "inputs": [
        {
          "indexed": true,
          "internalType": "bytes32",
          "name": "role",
          "type": "bytes32"
        },
        {
          "indexed": true,
          "internalType": "address",
          "name": "account",
          "type": "address"
        },
        {
          "indexed": true,
          "internalType": "address",
          "name": "sender",
          "type": "address"
        }
      ],
      "name": "RoleRevoked",
      "type": "event"
    },
    {
      "anonymous": false,
      "inputs": [
        {
          "indexed": true,
          "internalType": "address",
          "name": "fornecedor",
          "type": "address"
        },
        {
          "indexed": false,
          "internalType": "uint256",
          "name": "valor",
          "type": "uint256"
        }
      ],
      "name": "SaldoSacado",
      "type": "event"
    },
    {
      "inputs": [],
      "name": "DEFAULT_ADMIN_ROLE",
      "outputs": [
        {
          "internalType": "bytes32",
          "name": "",
          "type": "bytes32"
        }
      ],
      "stateMutability": "view",
      "type": "function",
      "constant": true
    },
    {
      "inputs": [],
      "name": "FORNECEDOR_ROLE",
      "outputs": [
        {
          "internalType": "bytes32",
          "name": "",
          "type": "bytes32"
        }
      ],
      "stateMutability": "view",
      "type": "function",
      "constant": true
    },
    {
      "inputs": [
        {
          "internalType": "address",
          "name": "",
          "type": "address"
        }
      ],
      "name": "cofreFornecedor",
      "outputs": [
        {
          "internalType": "uint256",
          "name": "",
          "type": "uint256"
        }
      ],
      "stateMutability": "view",
      "type": "function",
      "constant": true
    },
    {
      "inputs": [
        {
          "internalType": "bytes32",
          "name": "role",
          "type": "bytes32"
        }
      ],
      "name": "getRoleAdmin",
      "outputs": [
        {
          "internalType": "bytes32",
          "name": "",
          "type": "bytes32"
        }
      ],
      "stateMutability": "view",
      "type": "function",
      "constant": true
    },
    {
      "inputs": [
        {
          "internalType": "bytes32",
          "name": "role",
          "type": "bytes32"
        },
        {
          "internalType": "address",
          "name": "account",
          "type": "address"
        }
      ],
      "name": "grantRole",
      "outputs": [],
      "stateMutability": "nonpayable",
      "type": "function"
    },
    {
      "inputs": [
        {
          "internalType": "bytes32",
          "name": "role",
          "type": "bytes32"
        },
        {
          "internalType": "address",
          "name": "account",
          "type": "address"
        }
      ],
      "name": "hasRole",
      "outputs": [
        {
          "internalType": "bool",
          "name": "",
          "type": "bool"
        }
      ],
      "stateMutability": "view",
      "type": "function",
      "constant": true
    },
    {
      "inputs": [
        {
          "internalType": "address",
          "name": "",
          "type": "address"
        },
        {
          "internalType": "uint256",
          "name": "",
          "type": "uint256"
        }
      ],
      "name": "itensPorFornecedor",
      "outputs": [
        {
          "internalType": "uint256",
          "name": "id",
          "type": "uint256"
        },
        {
          "internalType": "string",
          "name": "descricao",
          "type": "string"
        },
        {
          "internalType": "uint256",
          "name": "valor",
          "type": "uint256"
        },
        {
          "internalType": "uint256",
          "name": "quantidade",
          "type": "uint256"
        }
      ],
      "stateMutability": "view",
      "type": "function",
      "constant": true
    },
    {
      "inputs": [
        {
          "internalType": "address",
          "name": "",
          "type": "address"
        },
        {
          "internalType": "uint256",
          "name": "",
          "type": "uint256"
        }
      ],
      "name": "listaItensFornecedor",
      "outputs": [
        {
          "internalType": "uint256",
          "name": "",
          "type": "uint256"
        }
      ],
      "stateMutability": "view",
      "type": "function",
      "constant": true
    },
    {
      "inputs": [
        {
          "internalType": "uint256",
          "name": "",
          "type": "uint256"
        }
      ],
      "name": "pedidos",
      "outputs": [
        {
          "internalType": "uint256",
          "name": "id",
          "type": "uint256"
        },
        {
          "internalType": "uint256",
          "name": "itemId",
          "type": "uint256"
        },
        {
          "internalType": "enum Escrow.SituacaoPedido",
          "name": "situacao",
          "type": "uint8"
        },
        {
          "internalType": "address",
          "name": "comprador",
          "type": "address"
        },
        {
          "internalType": "address",
          "name": "fornecedor",
          "type": "address"
        },
        {
          "internalType": "uint256",
          "name": "valorPago",
          "type": "uint256"
        }
      ],
      "stateMutability": "view",
      "type": "function",
      "constant": true
    },
    {
      "inputs": [
        {
          "internalType": "bytes32",
          "name": "role",
          "type": "bytes32"
        },
        {
          "internalType": "address",
          "name": "callerConfirmation",
          "type": "address"
        }
      ],
      "name": "renounceRole",
      "outputs": [],
      "stateMutability": "nonpayable",
      "type": "function"
    },
    {
      "inputs": [
        {
          "internalType": "bytes32",
          "name": "role",
          "type": "bytes32"
        },
        {
          "internalType": "address",
          "name": "account",
          "type": "address"
        }
      ],
      "name": "revokeRole",
      "outputs": [],
      "stateMutability": "nonpayable",
      "type": "function"
    },
    {
      "inputs": [
        {
          "internalType": "bytes4",
          "name": "interfaceId",
          "type": "bytes4"
        }
      ],
      "name": "supportsInterface",
      "outputs": [
        {
          "internalType": "bool",
          "name": "",
          "type": "bool"
        }
      ],
      "stateMutability": "view",
      "type": "function",
      "constant": true
    },
    {
      "inputs": [
        {
          "internalType": "address",
          "name": "_conta",
          "type": "address"
        }
      ],
      "name": "concederPermissaoFornecedor",
      "outputs": [],
      "stateMutability": "nonpayable",
      "type": "function"
    },
    {
      "inputs": [
        {
          "internalType": "address",
          "name": "_conta",
          "type": "address"
        }
      ],
      "name": "removerPermissaoFornecedor",
      "outputs": [],
      "stateMutability": "nonpayable",
      "type": "function"
    },
    {
      "inputs": [],
      "name": "isFornecedor",
      "outputs": [
        {
          "internalType": "bool",
          "name": "",
          "type": "bool"
        }
      ],
      "stateMutability": "view",
      "type": "function",
      "constant": true
    },
    {
      "inputs": [],
      "name": "isAdmin",
      "outputs": [
        {
          "internalType": "bool",
          "name": "",
          "type": "bool"
        }
      ],
      "stateMutability": "view",
      "type": "function",
      "constant": true
    },
    {
      "inputs": [
        {
          "internalType": "string",
          "name": "_descricao",
          "type": "string"
        },
        {
          "internalType": "uint256",
          "name": "_valor",
          "type": "uint256"
        },
        {
          "internalType": "uint256",
          "name": "_quantidade",
          "type": "uint256"
        }
      ],
      "name": "adicionarItem",
      "outputs": [],
      "stateMutability": "nonpayable",
      "type": "function"
    },
    {
      "inputs": [
        {
          "internalType": "address",
          "name": "_fornecedor",
          "type": "address"
        }
      ],
      "name": "listarItens",
      "outputs": [
        {
          "components": [
            {
              "internalType": "uint256",
              "name": "id",
              "type": "uint256"
            },
            {
              "internalType": "string",
              "name": "descricao",
              "type": "string"
            },
            {
              "internalType": "uint256",
              "name": "valor",
              "type": "uint256"
            },
            {
              "internalType": "uint256",
              "name": "quantidade",
              "type": "uint256"
            }
          ],
          "internalType": "struct Escrow.Item[]",
          "name": "",
          "type": "tuple[]"
        }
      ],
      "stateMutability": "view",
      "type": "function",
      "constant": true
    },
    {
      "inputs": [
        {
          "internalType": "address",
          "name": "_fornecedor",
          "type": "address"
        },
        {
          "internalType": "uint256",
          "name": "_itemId",
          "type": "uint256"
        }
      ],
      "name": "comprarItem",
      "outputs": [],
      "stateMutability": "payable",
      "type": "function",
      "payable": true
    },
    {
      "inputs": [],
      "name": "sacarSaldo",
      "outputs": [],
      "stateMutability": "nonpayable",
      "type": "function"
    },
    {
      "inputs": [
        {
          "internalType": "uint256",
          "name": "_pedidoId",
          "type": "uint256"
        }
      ],
      "name": "confirmarRecebimento",
      "outputs": [],
      "stateMutability": "nonpayable",
      "type": "function"
    },
    {
      "inputs": [
        {
          "internalType": "uint256",
          "name": "_pedidoId",
          "type": "uint256"
        }
      ],
      "name": "confirmarEntrega",
      "outputs": [],
      "stateMutability": "nonpayable",
      "type": "function"
    }
  ],
  "bytecode": "0x608060405260018055600160025534801562000019575f80fd5b506200002e5f801b336200003560201b60201c565b506200019a565b5f6200004883836200013060201b60201c565b620001265760015f808581526020019081526020015f205f015f8473ffffffffffffffffffffffffffffffffffffffff1673ffffffffffffffffffffffffffffffffffffffff1681526020019081526020015f205f6101000a81548160ff021916908315150217905550620000c26200019360201b60201c565b73ffffffffffffffffffffffffffffffffffffffff168273ffffffffffffffffffffffffffffffffffffffff16847f2f8788117e7eff1d82e926ec794901d17c78024a50270940304540a733656f0d60405160405180910390a4600190506200012a565b5f90505b92915050565b5f805f8481526020019081526020015f205f015f8373ffffffffffffffffffffffffffffffffffffffff1673ffffffffffffffffffffffffffffffffffffffff1681526020019081526020015f205f9054906101000a900460ff16905092915050565b5f33905090565b612fae80620001a85f395ff3fe608060405260043610610134575f3560e01c8063609b4cff116100aa578063b6db75a01161006e578063b6db75a014610444578063bae978471461046e578063d547741f14610484578063d6186d3b146104ac578063eea7f824146104d6578063f0b3a977146104fe57610134565b8063609b4cff1461034d57806380151dd31461038e57806391d14854146103b6578063a217fddf146103f2578063ad7a56721461041c57610134565b8063248a9ca3116100fc578063248a9ca3146102355780632553ac25146102715780632f2ff15d1461029957806336568abe146102c157806340d7a112146102e95780635803f48b1461031157610134565b806301ffc9a71461013857806308aae725146101745780630d046a15146101b3578063138047c8146101dd578063203aa8fc146101f9575b5f80fd5b348015610143575f80fd5b5061015e60048036038101906101599190612029565b61053a565b60405161016b919061206e565b60405180910390f35b34801561017f575f80fd5b5061019a60048036038101906101959190612114565b6105b3565b6040516101aa94939291906121eb565b60405180910390f35b3480156101be575f80fd5b506101c7610670565b6040516101d4919061224d565b60405180910390f35b6101f760048036038101906101f29190612114565b610694565b005b348015610204575f80fd5b5061021f600480360381019061021a9190612266565b6109dd565b60405161022c9190612291565b60405180910390f35b348015610240575f80fd5b5061025b600480360381019061025691906122d4565b6109f2565b604051610268919061224d565b60405180910390f35b34801561027c575f80fd5b50610297600480360381019061029291906122ff565b610a0e565b005b3480156102a4575f80fd5b506102bf60048036038101906102ba919061232a565b610e6c565b005b3480156102cc575f80fd5b506102e760048036038101906102e2919061232a565b610e8e565b005b3480156102f4575f80fd5b5061030f600480360381019061030a9190612266565b610f09565b005b34801561031c575f80fd5b5061033760048036038101906103329190612266565b611004565b60405161034491906124da565b60405180910390f35b348015610358575f80fd5b50610373600480360381019061036e91906122ff565b611250565b6040516103859695949392919061257c565b60405180910390f35b348015610399575f80fd5b506103b460048036038101906103af9190612266565b6112d3565b005b3480156103c1575f80fd5b506103dc60048036038101906103d7919061232a565b6113cd565b6040516103e9919061206e565b60405180910390f35b3480156103fd575f80fd5b50610406611430565b604051610413919061224d565b60405180910390f35b348015610427575f80fd5b50610442600480360381019061043d9190612707565b611436565b005b34801561044f575f80fd5b5061045861165b565b604051610465919061206e565b60405180910390f35b348015610479575f80fd5b5061048261166d565b005b34801561048f575f80fd5b506104aa60048036038101906104a5919061232a565b6117f2565b005b3480156104b7575f80fd5b506104c0611814565b6040516104cd919061206e565b60405180910390f35b3480156104e1575f80fd5b506104fc60048036038101906104f791906122ff565b611844565b005b348015610509575f80fd5b50610524600480360381019061051f9190612114565b611ccc565b6040516105319190612291565b60405180910390f35b5f7f7965db0b000000000000000000000000000000000000000000000000000000007bffffffffffffffffffffffffffffffffffffffffffffffffffffffff1916827bffffffffffffffffffffffffffffffffffffffffffffffffffffffff191614806105ac57506105ab82611cf7565b5b9050919050565b6004602052815f5260405f20602052805f5260405f205f9150915050805f0154908060010180546105e3906127a0565b80601f016020809104026020016040519081016040528092919081815260200182805461060f906127a0565b801561065a5780601f106106315761010080835404028352916020019161065a565b820191905f5260205f20905b81548152906001019060200180831161063d57829003601f168201915b5050505050908060020154908060030154905084565b7f4c9be3f07a6d4b8d9a30ee174f3013f5828af8f3e9648a5e6a243775be68c5b781565b5f60045f8473ffffffffffffffffffffffffffffffffffffffff1673ffffffffffffffffffffffffffffffffffffffff1681526020019081526020015f205f8381526020019081526020015f2090505f816003015411610729576040517f08c379a00000000000000000000000000000000000000000000000000000000081526004016107209061281a565b60405180910390fd5b8060020154341015610770576040517f08c379a000000000000000000000000000000000000000000000000000000000815260040161076790612882565b60405180910390fd5b8273ffffffffffffffffffffffffffffffffffffffff163373ffffffffffffffffffffffffffffffffffffffff16036107de576040517f08c379a00000000000000000000000000000000000000000000000000000000081526004016107d590612910565b60405180910390fd5b6001816003015f8282546107f2919061295b565b925050819055505f60025f81548092919061080c9061298e565b9190505590505f6040518060c001604052808381526020018581526020016002600381111561083e5761083d6124fa565b5b81526020013373ffffffffffffffffffffffffffffffffffffffff1681526020018673ffffffffffffffffffffffffffffffffffffffff1681526020013481525090508060065f8481526020019081526020015f205f820151815f0155602082015181600101556040820151816002015f6101000a81548160ff021916908360038111156108cf576108ce6124fa565b5b021790555060608201518160020160016101000a81548173ffffffffffffffffffffffffffffffffffffffff021916908373ffffffffffffffffffffffffffffffffffffffff1602179055506080820151816003015f6101000a81548173ffffffffffffffffffffffffffffffffffffffff021916908373ffffffffffffffffffffffffffffffffffffffff16021790555060a082015181600401559050508473ffffffffffffffffffffffffffffffffffffffff163373ffffffffffffffffffffffffffffffffffffffff16837f9421f923c7db9f0562b84beb05cdcc5f080aaea1631dbbb9d0c6bfe8828cea3187346040516109ce9291906129d5565b60405180910390a45050505050565b6003602052805f5260405f205f915090505481565b5f805f8381526020019081526020015f20600101549050919050565b5f60065f8381526020019081526020015f2090503373ffffffffffffffffffffffffffffffffffffffff168160020160019054906101000a900473ffffffffffffffffffffffffffffffffffffffff1673ffffffffffffffffffffffffffffffffffffffff1614610a7d575f80fd5b60026003811115610a9157610a906124fa565b5b816002015f9054906101000a900460ff166003811115610ab457610ab36124fa565b5b1480610af4575060016003811115610acf57610ace6124fa565b5b816002015f9054906101000a900460ff166003811115610af257610af16124fa565b5b145b610b33576040517f08c379a0000000000000000000000000000000000000000000000000000000008152600401610b2a90612a46565b60405180910390fd5b60026003811115610b4757610b466124fa565b5b816002015f9054906101000a900460ff166003811115610b6a57610b696124fa565b5b03610b9f575f816002015f6101000a81548160ff02191690836003811115610b9557610b946124fa565b5b0217905550610da8565b60016003811115610bb357610bb26124fa565b5b816002015f9054906101000a900460ff166003811115610bd657610bd56124fa565b5b03610da757806003015f9054906101000a900473ffffffffffffffffffffffffffffffffffffffff1673ffffffffffffffffffffffffffffffffffffffff168160020160019054906101000a900473ffffffffffffffffffffffffffffffffffffffff1673ffffffffffffffffffffffffffffffffffffffff16825f01547f69453e5fd59146d061a2de0d118e472b9c33b5ad75e7dfb95addd2b153aab03a5f604051610c839190612a64565b60405180910390a46003816002015f6101000a81548160ff02191690836003811115610cb257610cb16124fa565b5b0217905550806004015460035f836003015f9054906101000a900473ffffffffffffffffffffffffffffffffffffffff1673ffffffffffffffffffffffffffffffffffffffff1673ffffffffffffffffffffffffffffffffffffffff1681526020019081526020015f205f828254610d2a9190612a7d565b92505081905550806003015f9054906101000a900473ffffffffffffffffffffffffffffffffffffffff1673ffffffffffffffffffffffffffffffffffffffff167fabeaf5850e6ba331374ef1eb1d40cab449efeed1a77fbc8014d5a8c85f94a0418260040154604051610d9e9190612291565b60405180910390a25b5b806003015f9054906101000a900473ffffffffffffffffffffffffffffffffffffffff1673ffffffffffffffffffffffffffffffffffffffff168160020160019054906101000a900473ffffffffffffffffffffffffffffffffffffffff1673ffffffffffffffffffffffffffffffffffffffff16825f01547f69453e5fd59146d061a2de0d118e472b9c33b5ad75e7dfb95addd2b153aab03a846002015f9054906101000a900460ff16604051610e609190612a64565b60405180910390a45050565b610e75826109f2565b610e7e81611d60565b610e888383611d74565b50505050565b610e96611e5d565b73ffffffffffffffffffffffffffffffffffffffff168173ffffffffffffffffffffffffffffffffffffffff1614610efa576040517f6697b23200000000000000000000000000000000000000000000000000000000815260040160405180910390fd5b610f048282611e64565b505050565b5f801b610f1581611d60565b610f3f7f4c9be3f07a6d4b8d9a30ee174f3013f5828af8f3e9648a5e6a243775be68c5b7836113cd565b15610f7f576040517f08c379a0000000000000000000000000000000000000000000000000000000008152600401610f7690612afa565b60405180910390fd5b610fa97f4c9be3f07a6d4b8d9a30ee174f3013f5828af8f3e9648a5e6a243775be68c5b783611d74565b505f6001811115610fbd57610fbc6124fa565b5b8273ffffffffffffffffffffffffffffffffffffffff167fab3bfa8a07dda04dafbf47e7f2b69d3edc2bb0aa87358dafe61e23c66183851960405160405180910390a35050565b60605f60055f8473ffffffffffffffffffffffffffffffffffffffff1673ffffffffffffffffffffffffffffffffffffffff1681526020019081526020015f2080548060200260200160405190810160405280929190818152602001828054801561108c57602002820191905f5260205f20905b815481526020019060010190808311611078575b505050505090505f815167ffffffffffffffff8111156110af576110ae6125e3565b5b6040519080825280602002602001820160405280156110e857816020015b6110d5611f9e565b8152602001906001900390816110cd5790505b5090505f5b82518110156112455760045f8673ffffffffffffffffffffffffffffffffffffffff1673ffffffffffffffffffffffffffffffffffffffff1681526020019081526020015f205f84838151811061114757611146612b18565b5b602002602001015181526020019081526020015f206040518060800160405290815f8201548152602001600182018054611180906127a0565b80601f01602080910402602001604051908101604052809291908181526020018280546111ac906127a0565b80156111f75780601f106111ce576101008083540402835291602001916111f7565b820191905f5260205f20905b8154815290600101906020018083116111da57829003601f168201915b505050505081526020016002820154815260200160038201548152505082828151811061122757611226612b18565b5b6020026020010181905250808061123d9061298e565b9150506110ed565b508092505050919050565b6006602052805f5260405f205f91509050805f015490806001015490806002015f9054906101000a900460ff16908060020160019054906101000a900473ffffffffffffffffffffffffffffffffffffffff1690806003015f9054906101000a900473ffffffffffffffffffffffffffffffffffffffff16908060040154905086565b5f801b6112df81611d60565b6113097f4c9be3f07a6d4b8d9a30ee174f3013f5828af8f3e9648a5e6a243775be68c5b7836113cd565b611348576040517f08c379a000000000000000000000000000000000000000000000000000000000815260040161133f90612b8f565b60405180910390fd5b6113727f4c9be3f07a6d4b8d9a30ee174f3013f5828af8f3e9648a5e6a243775be68c5b783611e64565b50600180811115611386576113856124fa565b5b8273ffffffffffffffffffffffffffffffffffffffff167fab3bfa8a07dda04dafbf47e7f2b69d3edc2bb0aa87358dafe61e23c66183851960405160405180910390a35050565b5f805f8481526020019081526020015f205f015f8373ffffffffffffffffffffffffffffffffffffffff1673ffffffffffffffffffffffffffffffffffffffff1681526020019081526020015f205f9054906101000a900460ff16905092915050565b5f801b81565b7f4c9be3f07a6d4b8d9a30ee174f3013f5828af8f3e9648a5e6a243775be68c5b761146081611d60565b5f83116114a2576040517f08c379a000000000000000000000000000000000000000000000000000000000815260040161149990612bf7565b60405180910390fd5b5f82116114e4576040517f08c379a00000000000000000000000000000000000000000000000000000000081526004016114db90612c5f565b60405180910390fd5b5f60015f8154809291906114f79061298e565b91905055905060405180608001604052808281526020018681526020018581526020018481525060045f3373ffffffffffffffffffffffffffffffffffffffff1673ffffffffffffffffffffffffffffffffffffffff1681526020019081526020015f205f8381526020019081526020015f205f820151815f015560208201518160010190816115879190612e1a565b50604082015181600201556060820151816003015590505060055f3373ffffffffffffffffffffffffffffffffffffffff1673ffffffffffffffffffffffffffffffffffffffff1681526020019081526020015f2081908060018154018082558091505060019003905f5260205f20015f90919091909150553373ffffffffffffffffffffffffffffffffffffffff167fb9b71c2c810448bd6babefc30710cc909ecfa0dfb635fa42e10e491b7c8ab38e8287878760405161164c94939291906121eb565b60405180910390a25050505050565b5f6116685f801b336113cd565b905090565b7f4c9be3f07a6d4b8d9a30ee174f3013f5828af8f3e9648a5e6a243775be68c5b761169781611d60565b5f60035f3373ffffffffffffffffffffffffffffffffffffffff1673ffffffffffffffffffffffffffffffffffffffff1681526020019081526020015f205490505f811161171a576040517f08c379a000000000000000000000000000000000000000000000000000000000815260040161171190612f33565b60405180910390fd5b5f60035f3373ffffffffffffffffffffffffffffffffffffffff1673ffffffffffffffffffffffffffffffffffffffff1681526020019081526020015f20819055503373ffffffffffffffffffffffffffffffffffffffff166108fc8290811502906040515f60405180830381858888f1935050505015801561179f573d5f803e3d5ffd5b503373ffffffffffffffffffffffffffffffffffffffff167f5fc3b54c181812cec14a4124731c2237ac79ece8eb1febb924fbd79dd36d4ae5826040516117e69190612291565b60405180910390a25050565b6117fb826109f2565b61180481611d60565b61180e8383611e64565b50505050565b5f61183f7f4c9be3f07a6d4b8d9a30ee174f3013f5828af8f3e9648a5e6a243775be68c5b7336113cd565b905090565b7f4c9be3f07a6d4b8d9a30ee174f3013f5828af8f3e9648a5e6a243775be68c5b761186e81611d60565b5f60065f8481526020019081526020015f2090503373ffffffffffffffffffffffffffffffffffffffff16816003015f9054906101000a900473ffffffffffffffffffffffffffffffffffffffff1673ffffffffffffffffffffffffffffffffffffffff16146118dc575f80fd5b600260038111156118f0576118ef6124fa565b5b816002015f9054906101000a900460ff166003811115611913576119126124fa565b5b148061195257505f600381111561192d5761192c6124fa565b5b816002015f9054906101000a900460ff1660038111156119505761194f6124fa565b5b145b611991576040517f08c379a000000000000000000000000000000000000000000000000000000000815260040161198890612a46565b60405180910390fd5b600260038111156119a5576119a46124fa565b5b816002015f9054906101000a900460ff1660038111156119c8576119c76124fa565b5b036119fe576001816002015f6101000a81548160ff021916908360038111156119f4576119f36124fa565b5b0217905550611c07565b5f6003811115611a1157611a106124fa565b5b816002015f9054906101000a900460ff166003811115611a3457611a336124fa565b5b03611c0657806003015f9054906101000a900473ffffffffffffffffffffffffffffffffffffffff1673ffffffffffffffffffffffffffffffffffffffff168160020160019054906101000a900473ffffffffffffffffffffffffffffffffffffffff1673ffffffffffffffffffffffffffffffffffffffff16825f01547fcc897b7f98a77d803e929a3e6496e566017019538e9eacf495e3460540cc436d6001604051611ae29190612a64565b60405180910390a46003816002015f6101000a81548160ff02191690836003811115611b1157611b106124fa565b5b0217905550806004015460035f836003015f9054906101000a900473ffffffffffffffffffffffffffffffffffffffff1673ffffffffffffffffffffffffffffffffffffffff1673ffffffffffffffffffffffffffffffffffffffff1681526020019081526020015f205f828254611b899190612a7d565b92505081905550806003015f9054906101000a900473ffffffffffffffffffffffffffffffffffffffff1673ffffffffffffffffffffffffffffffffffffffff167fabeaf5850e6ba331374ef1eb1d40cab449efeed1a77fbc8014d5a8c85f94a0418260040154604051611bfd9190612291565b60405180910390a25b5b806003015f9054906101000a900473ffffffffffffffffffffffffffffffffffffffff1673ffffffffffffffffffffffffffffffffffffffff168160020160019054906101000a900473ffffffffffffffffffffffffffffffffffffffff1673ffffffffffffffffffffffffffffffffffffffff16825f01547fcc897b7f98a77d803e929a3e6496e566017019538e9eacf495e3460540cc436d846002015f9054906101000a900460ff16604051611cbf9190612a64565b60405180910390a4505050565b6005602052815f5260405f208181548110611ce5575f80fd5b905f5260205f20015f91509150505481565b5f7f01ffc9a7000000000000000000000000000000000000000000000000000000007bffffffffffffffffffffffffffffffffffffffffffffffffffffffff1916827bffffffffffffffffffffffffffffffffffffffffffffffffffffffff1916149050919050565b611d7181611d6c611e5d565b611f4d565b50565b5f611d7f83836113cd565b611e535760015f808581526020019081526020015f205f015f8473ffffffffffffffffffffffffffffffffffffffff1673ffffffffffffffffffffffffffffffffffffffff1681526020019081526020015f205f6101000a81548160ff021916908315150217905550611df0611e5d565b73ffffffffffffffffffffffffffffffffffffffff168273ffffffffffffffffffffffffffffffffffffffff16847f2f8788117e7eff1d82e926ec794901d17c78024a50270940304540a733656f0d60405160405180910390a460019050611e57565b5f90505b92915050565b5f33905090565b5f611e6f83836113cd565b15611f43575f805f8581526020019081526020015f205f015f8473ffffffffffffffffffffffffffffffffffffffff1673ffffffffffffffffffffffffffffffffffffffff1681526020019081526020015f205f6101000a81548160ff021916908315150217905550611ee0611e5d565b73ffffffffffffffffffffffffffffffffffffffff168273ffffffffffffffffffffffffffffffffffffffff16847ff6391f5c32d9c69d2a47ea670b442974b53935d1edc7fd64eb21e047a839171b60405160405180910390a460019050611f47565b5f90505b92915050565b611f5782826113cd565b611f9a5780826040517fe2517d3f000000000000000000000000000000000000000000000000000000008152600401611f91929190612f51565b60405180910390fd5b5050565b60405180608001604052805f8152602001606081526020015f81526020015f81525090565b5f604051905090565b5f80fd5b5f80fd5b5f7fffffffff0000000000000000000000000000000000000000000000000000000082169050919050565b61200881611fd4565b8114612012575f80fd5b50565b5f8135905061202381611fff565b92915050565b5f6020828403121561203e5761203d611fcc565b5b5f61204b84828501612015565b91505092915050565b5f8115159050919050565b61206881612054565b82525050565b5f6020820190506120815f83018461205f565b92915050565b5f73ffffffffffffffffffffffffffffffffffffffff82169050919050565b5f6120b082612087565b9050919050565b6120c0816120a6565b81146120ca575f80fd5b50565b5f813590506120db816120b7565b92915050565b5f819050919050565b6120f3816120e1565b81146120fd575f80fd5b50565b5f8135905061210e816120ea565b92915050565b5f806040838503121561212a57612129611fcc565b5b5f612137858286016120cd565b925050602061214885828601612100565b9150509250929050565b61215b816120e1565b82525050565b5f81519050919050565b5f82825260208201905092915050565b5f5b8381101561219857808201518184015260208101905061217d565b5f8484015250505050565b5f601f19601f8301169050919050565b5f6121bd82612161565b6121c7818561216b565b93506121d781856020860161217b565b6121e0816121a3565b840191505092915050565b5f6080820190506121fe5f830187612152565b818103602083015261221081866121b3565b905061221f6040830185612152565b61222c6060830184612152565b95945050505050565b5f819050919050565b61224781612235565b82525050565b5f6020820190506122605f83018461223e565b92915050565b5f6020828403121561227b5761227a611fcc565b5b5f612288848285016120cd565b91505092915050565b5f6020820190506122a45f830184612152565b92915050565b6122b381612235565b81146122bd575f80fd5b50565b5f813590506122ce816122aa565b92915050565b5f602082840312156122e9576122e8611fcc565b5b5f6122f6848285016122c0565b91505092915050565b5f6020828403121561231457612313611fcc565b5b5f61232184828501612100565b91505092915050565b5f80604083850312156123405761233f611fcc565b5b5f61234d858286016122c0565b925050602061235e858286016120cd565b9150509250929050565b5f81519050919050565b5f82825260208201905092915050565b5f819050602082019050919050565b61239a816120e1565b82525050565b5f82825260208201905092915050565b5f6123ba82612161565b6123c481856123a0565b93506123d481856020860161217b565b6123dd816121a3565b840191505092915050565b5f608083015f8301516123fd5f860182612391565b506020830151848203602086015261241582826123b0565b915050604083015161242a6040860182612391565b50606083015161243d6060860182612391565b508091505092915050565b5f61245383836123e8565b905092915050565b5f602082019050919050565b5f61247182612368565b61247b8185612372565b93508360208202850161248d85612382565b805f5b858110156124c857848403895281516124a98582612448565b94506124b48361245b565b925060208a01995050600181019050612490565b50829750879550505050505092915050565b5f6020820190508181035f8301526124f28184612467565b905092915050565b7f4e487b71000000000000000000000000000000000000000000000000000000005f52602160045260245ffd5b60048110612538576125376124fa565b5b50565b5f81905061254882612527565b919050565b5f6125578261253b565b9050919050565b6125678161254d565b82525050565b612576816120a6565b82525050565b5f60c08201905061258f5f830189612152565b61259c6020830188612152565b6125a9604083018761255e565b6125b6606083018661256d565b6125c3608083018561256d565b6125d060a0830184612152565b979650505050505050565b5f80fd5b5f80fd5b7f4e487b71000000000000000000000000000000000000000000000000000000005f52604160045260245ffd5b612619826121a3565b810181811067ffffffffffffffff82111715612638576126376125e3565b5b80604052505050565b5f61264a611fc3565b90506126568282612610565b919050565b5f67ffffffffffffffff821115612675576126746125e3565b5b61267e826121a3565b9050602081019050919050565b828183375f83830152505050565b5f6126ab6126a68461265b565b612641565b9050828152602081018484840111156126c7576126c66125df565b5b6126d284828561268b565b509392505050565b5f82601f8301126126ee576126ed6125db565b5b81356126fe848260208601612699565b91505092915050565b5f805f6060848603121561271e5761271d611fcc565b5b5f84013567ffffffffffffffff81111561273b5761273a611fd0565b5b612747868287016126da565b935050602061275886828701612100565b925050604061276986828701612100565b9150509250925092565b7f4e487b71000000000000000000000000000000000000000000000000000000005f52602260045260245ffd5b5f60028204905060018216806127b757607f821691505b6020821081036127ca576127c9612773565b5b50919050565b7f4974656d206573676f7461646f000000000000000000000000000000000000005f82015250565b5f612804600d8361216b565b915061280f826127d0565b602082019050919050565b5f6020820190508181035f830152612831816127f8565b9050919050565b7f56616c6f7220696e737566696369656e746500000000000000000000000000005f82015250565b5f61286c60128361216b565b915061287782612838565b602082019050919050565b5f6020820190508181035f83015261289981612860565b9050919050565b7f466f726e656365646f72206e616f20706f646520636f6d7072617220736575205f8201527f70726f7072696f206974656d0000000000000000000000000000000000000000602082015250565b5f6128fa602c8361216b565b9150612905826128a0565b604082019050919050565b5f6020820190508181035f830152612927816128ee565b9050919050565b7f4e487b71000000000000000000000000000000000000000000000000000000005f52601160045260245ffd5b5f612965826120e1565b9150612970836120e1565b92508282039050818111156129885761298761292e565b5b92915050565b5f612998826120e1565b91507fffffffffffffffffffffffffffffffffffffffffffffffffffffffffffffffff82036129ca576129c961292e565b5b600182019050919050565b5f6040820190506129e85f830185612152565b6129f56020830184612152565b9392505050565b7f50656469646f206a612066696e616c697a61646f0000000000000000000000005f82015250565b5f612a3060148361216b565b9150612a3b826129fc565b602082019050919050565b5f6020820190508181035f830152612a5d81612a24565b9050919050565b5f602082019050612a775f83018461255e565b92915050565b5f612a87826120e1565b9150612a92836120e1565b9250828201905080821115612aaa57612aa961292e565b5b92915050565b7f436f6e7461206a6120706f73737569207065726d697373616f000000000000005f82015250565b5f612ae460198361216b565b9150612aef82612ab0565b602082019050919050565b5f6020820190508181035f830152612b1181612ad8565b9050919050565b7f4e487b71000000000000000000000000000000000000000000000000000000005f52603260045260245ffd5b7f436f6e7461206e616f20706f73737569207065726d697373616f0000000000005f82015250565b5f612b79601a8361216b565b9150612b8482612b45565b602082019050919050565b5f6020820190508181035f830152612ba681612b6d565b9050919050565b7f56616c6f7220696e76616c69646f0000000000000000000000000000000000005f82015250565b5f612be1600e8361216b565b9150612bec82612bad565b602082019050919050565b5f6020820190508181035f830152612c0e81612bd5565b9050919050565b7f5175616e74696461646520696e76616c696461000000000000000000000000005f82015250565b5f612c4960138361216b565b9150612c5482612c15565b602082019050919050565b5f6020820190508181035f830152612c7681612c3d565b9050919050565b5f819050815f5260205f209050919050565b5f6020601f8301049050919050565b5f82821b905092915050565b5f60088302612cd97fffffffffffffffffffffffffffffffffffffffffffffffffffffffffffffffff82612c9e565b612ce38683612c9e565b95508019841693508086168417925050509392505050565b5f819050919050565b5f612d1e612d19612d14846120e1565b612cfb565b6120e1565b9050919050565b5f819050919050565b612d3783612d04565b612d4b612d4382612d25565b848454612caa565b825550505050565b5f90565b612d5f612d53565b612d6a818484612d2e565b505050565b5b81811015612d8d57612d825f82612d57565b600181019050612d70565b5050565b601f821115612dd257612da381612c7d565b612dac84612c8f565b81016020851015612dbb578190505b612dcf612dc785612c8f565b830182612d6f565b50505b505050565b5f82821c905092915050565b5f612df25f1984600802612dd7565b1980831691505092915050565b5f612e0a8383612de3565b9150826002028217905092915050565b612e2382612161565b67ffffffffffffffff811115612e3c57612e3b6125e3565b5b612e4682546127a0565b612e51828285612d91565b5f60209050601f831160018114612e82575f8415612e70578287015190505b612e7a8582612dff565b865550612ee1565b601f198416612e9086612c7d565b5f5b82811015612eb757848901518255600182019150602085019450602081019050612e92565b86831015612ed45784890151612ed0601f891682612de3565b8355505b6001600288020188555050505b505050505050565b7f4e656e68756d2073616c646f20646973706f6e6976656c0000000000000000005f82015250565b5f612f1d60178361216b565b9150612f2882612ee9565b602082019050919050565b5f6020820190508181035f830152612f4a81612f11565b9050919050565b5f604082019050612f645f83018561256d565b612f71602083018461223e565b939250505056fea26469706673582212203beed4c49e4bd01f1615a31581f1f88e491be583244d06c7f5805990c58e175d64736f6c63430008150033",
  "immutableReferences": {},
  "source": "// SPDX-License-Identifier: MIT\npragma solidity >=0.8.2 <0.9.0;\n\nimport \"@openzeppelin/contracts/access/AccessControl.sol\";\n\ncontract Escrow is AccessControl {\n    bytes32 public constant FORNECEDOR_ROLE = keccak256(\"FORNECEDOR_ROLE\");\n\n    enum SituacaoPermissao {\n        CONFIRMADA,\n        REMOVIDA\n    }\n\n    enum SituacaoPedido {\n        RECEBIDO,\n        ENTREGUE,\n        PENDENTE,\n        FINALIZADO\n    }\n\n    uint256 private proximoItemId = 1;\n    uint256 private proximoPedidoId = 1;\n\n    struct Item {\n        uint256 id;\n        string descricao;\n        uint256 valor;\n        uint256 quantidade;\n    }\n\n    struct Pedido {\n        uint256 id;\n        uint itemId;\n        SituacaoPedido situacao;\n        address comprador;\n        address fornecedor;\n        uint256 valorPago;\n    }\n\n    mapping(address => uint256) public cofreFornecedor;\n    mapping(address => mapping(uint256 => Item)) public itensPorFornecedor;\n    mapping(address => uint256[]) public listaItensFornecedor;\n    // mapping(address => Pedido[]) public itensComprados;\n    mapping(uint256 => Pedido) public pedidos;\n\n    event ItemAdicionado(\n        address indexed fornecedor,\n        uint256 itemId,\n        string descricao,\n        uint256 valor,\n        uint256 quantidade\n    );\n    event ItemComprado(\n        uint256 indexed pedidoId,\n        address indexed comprador,\n        address indexed fornecedor,\n        uint256 itemId,\n        uint256 valorPago\n    );\n    // event PedidoConfirmado(address indexed comprador, address indexed fornecedor, uint256 itemId);\n    event SaldoSacado(address indexed fornecedor, uint256 valor);\n\n    event EventoPermissaoFornecedor(\n        address indexed conta,\n        SituacaoPermissao indexed status\n    );\n    event PedidoRecebido(\n        uint256 indexed pedidoId,\n        address indexed comprador,\n        address indexed fornecedor,\n        SituacaoPedido situacao\n    );\n    event PedidoEntregue(\n        uint256 indexed pedidoId,\n        address indexed comprador,\n        address indexed fornecedor,\n        SituacaoPedido situacao\n    );\n    event PedidoFinalizado(address indexed fornecedor, uint256 valor);\n\n    constructor() {\n        _grantRole(DEFAULT_ADMIN_ROLE, msg.sender);\n    }\n\n    function concederPermissaoFornecedor(\n        address _conta\n    ) public onlyRole(DEFAULT_ADMIN_ROLE) {\n        require(!hasRole(FORNECEDOR_ROLE, _conta), \"Conta ja possui permissao\");\n        _grantRole(FORNECEDOR_ROLE, _conta);\n        emit EventoPermissaoFornecedor(_conta, SituacaoPermissao.CONFIRMADA);\n    }\n\n    function removerPermissaoFornecedor(\n        address _conta\n    ) public onlyRole(DEFAULT_ADMIN_ROLE) {\n        require(hasRole(FORNECEDOR_ROLE, _conta), \"Conta nao possui permissao\");\n        _revokeRole(FORNECEDOR_ROLE, _conta);\n        emit EventoPermissaoFornecedor(_conta, SituacaoPermissao.REMOVIDA);\n    }\n\n    function isFornecedor() public view returns (bool) {\n        return hasRole(FORNECEDOR_ROLE, msg.sender);\n    }\n\n    function isAdmin() public view returns (bool) {\n        return hasRole(DEFAULT_ADMIN_ROLE, msg.sender);\n    }\n\n    function adicionarItem(\n        string memory _descricao,\n        uint256 _valor,\n        uint256 _quantidade\n    ) public onlyRole(FORNECEDOR_ROLE) {\n        require(_valor > 0, \"Valor invalido\");\n        require(_quantidade > 0, \"Quantidade invalida\");\n\n        uint256 produtoId = proximoItemId++;\n\n        itensPorFornecedor[msg.sender][produtoId] = Item({\n            id: produtoId,\n            descricao: _descricao,\n            valor: _valor,\n            quantidade: _quantidade\n        });\n\n        listaItensFornecedor[msg.sender].push(produtoId);\n\n        emit ItemAdicionado(\n            msg.sender,\n            produtoId,\n            _descricao,\n            _valor,\n            _quantidade\n        );\n    }\n\n    function listarItens(\n        address _fornecedor\n    ) public view returns (Item[] memory) {\n        uint256[] memory ids = listaItensFornecedor[_fornecedor];\n        Item[] memory resultado = new Item[](ids.length);\n\n        for (uint256 i = 0; i < ids.length; i++) {\n            resultado[i] = itensPorFornecedor[_fornecedor][ids[i]];\n        }\n\n        return resultado;\n    }\n\n    function comprarItem(\n        address _fornecedor,\n        uint256 _itemId\n    ) external payable {\n        Item storage item = itensPorFornecedor[_fornecedor][_itemId];\n        require(item.quantidade > 0, \"Item esgotado\");\n        require(msg.value >= item.valor, \"Valor insuficiente\");\n        require(\n            msg.sender != _fornecedor,\n            \"Fornecedor nao pode comprar seu proprio item\"\n        );\n\n        item.quantidade -= 1;\n\n        uint256 id = proximoPedidoId++;\n\n        Pedido memory pedido = Pedido({\n            id: id,\n            itemId: _itemId,\n            situacao: SituacaoPedido.PENDENTE,\n            fornecedor: _fornecedor,\n            comprador: msg.sender,\n            valorPago: msg.value\n        });\n\n        // itensComprados[msg.sender].push(pedido);\n        pedidos[id] = pedido;\n\n        emit ItemComprado(id, msg.sender, _fornecedor, _itemId, msg.value);\n    }\n\n    function sacarSaldo() external onlyRole(FORNECEDOR_ROLE) {\n        uint256 saldo = cofreFornecedor[msg.sender];\n        require(saldo > 0, \"Nenhum saldo disponivel\");\n\n        cofreFornecedor[msg.sender] = 0;\n        payable(msg.sender).transfer(saldo);\n        emit SaldoSacado(msg.sender, saldo);\n    }\n\n    // function listarPedidos() external view returns (Pedido[] memory) {\n    //     return itensComprados[msg.sender];\n    // }\n\n    function confirmarRecebimento(uint256 _pedidoId) external {\n        Pedido storage pedido = pedidos[_pedidoId];\n\n        require(pedido.comprador == msg.sender);\n\n        require(\n            pedido.situacao == SituacaoPedido.PENDENTE ||\n                pedido.situacao == SituacaoPedido.ENTREGUE,\n            \"Pedido ja finalizado\"\n        );\n\n        if (pedido.situacao == SituacaoPedido.PENDENTE) {\n            pedido.situacao = SituacaoPedido.RECEBIDO;\n        } else if (pedido.situacao == SituacaoPedido.ENTREGUE) {\n            emit PedidoRecebido(\n                pedido.id,\n                pedido.comprador,\n                pedido.fornecedor,\n                SituacaoPedido.RECEBIDO\n            );\n            pedido.situacao = SituacaoPedido.FINALIZADO;\n            cofreFornecedor[pedido.fornecedor] += pedido.valorPago;\n            emit PedidoFinalizado(pedido.fornecedor, pedido.valorPago);\n        }\n\n        emit PedidoRecebido(\n            pedido.id,\n            pedido.comprador,\n            pedido.fornecedor,\n            pedido.situacao\n        );\n    }\n\n    function confirmarEntrega(\n        uint256 _pedidoId\n    ) external onlyRole(FORNECEDOR_ROLE) {\n        Pedido storage pedido = pedidos[_pedidoId];\n\n        require(pedido.fornecedor == msg.sender);\n\n        require(\n            pedido.situacao == SituacaoPedido.PENDENTE ||\n                pedido.situacao == SituacaoPedido.RECEBIDO,\n            \"Pedido ja finalizado\"\n        );\n\n        if (pedido.situacao == SituacaoPedido.PENDENTE) {\n            pedido.situacao = SituacaoPedido.ENTREGUE;\n        } else if (pedido.situacao == SituacaoPedido.RECEBIDO) {\n            emit PedidoEntregue(\n                pedido.id,\n                pedido.comprador,\n                pedido.fornecedor,\n                SituacaoPedido.ENTREGUE\n            );\n            pedido.situacao = SituacaoPedido.FINALIZADO;\n            cofreFornecedor[pedido.fornecedor] += pedido.valorPago;\n            emit PedidoFinalizado(pedido.fornecedor, pedido.valorPago);\n        }\n\n        emit PedidoEntregue(\n            pedido.id,\n            pedido.comprador,\n            pedido.fornecedor,\n            pedido.situacao\n        );\n    }\n}\n",
  "sourcePath": "/home/willian_samsung/Documentos/escrow/truffle/contracts/Escrow.sol",
  "compiler": {
    "name": "solc",
    "version": "0.8.21+commit.d9974bed.Emscripten.clang"
  },
  "schemaVersion": "3.4.16",
  "updatedAt": "2025-09-11T01:43:17.690Z",
  "networkType": "ethereum",
  "devdoc": {
    "errors": {
      "AccessControlBadConfirmation()": [
        {
          "details": "The caller of a function is not the expected one. NOTE: Don't confuse with {AccessControlUnauthorizedAccount}."
        }
      ],
      "AccessControlUnauthorizedAccount(address,bytes32)": [
        {
          "details": "The `account` is missing a role."
        }
      ]
    },
    "events": {
      "RoleAdminChanged(bytes32,bytes32,bytes32)": {
        "details": "Emitted when `newAdminRole` is set as ``role``'s admin role, replacing `previousAdminRole` `DEFAULT_ADMIN_ROLE` is the starting admin for all roles, despite {RoleAdminChanged} not being emitted to signal this."
      },
      "RoleGranted(bytes32,address,address)": {
        "details": "Emitted when `account` is granted `role`. `sender` is the account that originated the contract call. This account bears the admin role (for the granted role). Expected in cases where the role was granted using the internal {AccessControl-_grantRole}."
      },
      "RoleRevoked(bytes32,address,address)": {
        "details": "Emitted when `account` is revoked `role`. `sender` is the account that originated the contract call:   - if using `revokeRole`, it is the admin role bearer   - if using `renounceRole`, it is the role bearer (i.e. `account`)"
      }
    },
    "kind": "dev",
    "methods": {
      "getRoleAdmin(bytes32)": {
        "details": "Returns the admin role that controls `role`. See {grantRole} and {revokeRole}. To change a role's admin, use {_setRoleAdmin}."
      },
      "grantRole(bytes32,address)": {
        "details": "Grants `role` to `account`. If `account` had not been already granted `role`, emits a {RoleGranted} event. Requirements: - the caller must have ``role``'s admin role. May emit a {RoleGranted} event."
      },
      "hasRole(bytes32,address)": {
        "details": "Returns `true` if `account` has been granted `role`."
      },
      "renounceRole(bytes32,address)": {
        "details": "Revokes `role` from the calling account. Roles are often managed via {grantRole} and {revokeRole}: this function's purpose is to provide a mechanism for accounts to lose their privileges if they are compromised (such as when a trusted device is misplaced). If the calling account had been revoked `role`, emits a {RoleRevoked} event. Requirements: - the caller must be `callerConfirmation`. May emit a {RoleRevoked} event."
      },
      "revokeRole(bytes32,address)": {
        "details": "Revokes `role` from `account`. If `account` had been granted `role`, emits a {RoleRevoked} event. Requirements: - the caller must have ``role``'s admin role. May emit a {RoleRevoked} event."
      },
      "supportsInterface(bytes4)": {
        "details": "Returns true if this contract implements the interface defined by `interfaceId`. See the corresponding https://eips.ethereum.org/EIPS/eip-165#how-interfaces-are-identified[ERC section] to learn more about how these ids are created. This function call must use less than 30 000 gas."
      }
    },
    "version": 1
  },
  "userdoc": {
    "kind": "user",
    "methods": {},
    "version": 1
  }
}