{
  "contractName": "Escrow",
  "abi": [
    {
      "inputs": [],
      "stateMutability": "nonpayable",
      "type": "constructor"
    },
    {
      "inputs": [],
      "name": "AccessControlBadConfirmation",
      "type": "error"
    },
    {
      "inputs": [
        {
          "internalType": "address",
          "name": "account",
          "type": "address"
        },
        {
          "internalType": "bytes32",
          "name": "neededRole",
          "type": "bytes32"
        }
      ],
      "name": "AccessControlUnauthorizedAccount",
      "type": "error"
    },
    {
      "anonymous": false,
      "inputs": [
        {
          "indexed": true,
          "internalType": "address",
          "name": "fornecedor",
          "type": "address"
        },
        {
          "indexed": false,
          "internalType": "uint256",
          "name": "itemId",
          "type": "uint256"
        },
        {
          "indexed": false,
          "internalType": "string",
          "name": "descricao",
          "type": "string"
        },
        {
          "indexed": false,
          "internalType": "uint256",
          "name": "valor",
          "type": "uint256"
        },
        {
          "indexed": false,
          "internalType": "uint256",
          "name": "quantidade",
          "type": "uint256"
        }
      ],
      "name": "ItemAdicionado",
      "type": "event"
    },
    {
      "anonymous": false,
      "inputs": [
        {
          "indexed": true,
          "internalType": "address",
          "name": "comprador",
          "type": "address"
        },
        {
          "indexed": true,
          "internalType": "address",
          "name": "fornecedor",
          "type": "address"
        },
        {
          "indexed": false,
          "internalType": "uint256",
          "name": "itemId",
          "type": "uint256"
        },
        {
          "indexed": false,
          "internalType": "uint256",
          "name": "valorPago",
          "type": "uint256"
        }
      ],
      "name": "ItemComprado",
      "type": "event"
    },
    {
      "anonymous": false,
      "inputs": [
        {
          "indexed": true,
          "internalType": "address",
          "name": "comprador",
          "type": "address"
        },
        {
          "indexed": true,
          "internalType": "address",
          "name": "fornecedor",
          "type": "address"
        },
        {
          "indexed": false,
          "internalType": "uint256",
          "name": "itemId",
          "type": "uint256"
        }
      ],
      "name": "PedidoConfirmado",
      "type": "event"
    },
    {
      "anonymous": false,
      "inputs": [
        {
          "indexed": true,
          "internalType": "bytes32",
          "name": "role",
          "type": "bytes32"
        },
        {
          "indexed": true,
          "internalType": "bytes32",
          "name": "previousAdminRole",
          "type": "bytes32"
        },
        {
          "indexed": true,
          "internalType": "bytes32",
          "name": "newAdminRole",
          "type": "bytes32"
        }
      ],
      "name": "RoleAdminChanged",
      "type": "event"
    },
    {
      "anonymous": false,
      "inputs": [
        {
          "indexed": true,
          "internalType": "bytes32",
          "name": "role",
          "type": "bytes32"
        },
        {
          "indexed": true,
          "internalType": "address",
          "name": "account",
          "type": "address"
        },
        {
          "indexed": true,
          "internalType": "address",
          "name": "sender",
          "type": "address"
        }
      ],
      "name": "RoleGranted",
      "type": "event"
    },
    {
      "anonymous": false,
      "inputs": [
        {
          "indexed": true,
          "internalType": "bytes32",
          "name": "role",
          "type": "bytes32"
        },
        {
          "indexed": true,
          "internalType": "address",
          "name": "account",
          "type": "address"
        },
        {
          "indexed": true,
          "internalType": "address",
          "name": "sender",
          "type": "address"
        }
      ],
      "name": "RoleRevoked",
      "type": "event"
    },
    {
      "anonymous": false,
      "inputs": [
        {
          "indexed": true,
          "internalType": "address",
          "name": "fornecedor",
          "type": "address"
        },
        {
          "indexed": false,
          "internalType": "uint256",
          "name": "valor",
          "type": "uint256"
        }
      ],
      "name": "SaldoSacado",
      "type": "event"
    },
    {
      "inputs": [],
      "name": "DEFAULT_ADMIN_ROLE",
      "outputs": [
        {
          "internalType": "bytes32",
          "name": "",
          "type": "bytes32"
        }
      ],
      "stateMutability": "view",
      "type": "function",
      "constant": true
    },
    {
      "inputs": [],
      "name": "FORNECEDOR_ROLE",
      "outputs": [
        {
          "internalType": "bytes32",
          "name": "",
          "type": "bytes32"
        }
      ],
      "stateMutability": "view",
      "type": "function",
      "constant": true
    },
    {
      "inputs": [
        {
          "internalType": "address",
          "name": "",
          "type": "address"
        }
      ],
      "name": "cofreFornecedor",
      "outputs": [
        {
          "internalType": "uint256",
          "name": "",
          "type": "uint256"
        }
      ],
      "stateMutability": "view",
      "type": "function",
      "constant": true
    },
    {
      "inputs": [
        {
          "internalType": "bytes32",
          "name": "role",
          "type": "bytes32"
        }
      ],
      "name": "getRoleAdmin",
      "outputs": [
        {
          "internalType": "bytes32",
          "name": "",
          "type": "bytes32"
        }
      ],
      "stateMutability": "view",
      "type": "function",
      "constant": true
    },
    {
      "inputs": [
        {
          "internalType": "bytes32",
          "name": "role",
          "type": "bytes32"
        },
        {
          "internalType": "address",
          "name": "account",
          "type": "address"
        }
      ],
      "name": "grantRole",
      "outputs": [],
      "stateMutability": "nonpayable",
      "type": "function"
    },
    {
      "inputs": [
        {
          "internalType": "bytes32",
          "name": "role",
          "type": "bytes32"
        },
        {
          "internalType": "address",
          "name": "account",
          "type": "address"
        }
      ],
      "name": "hasRole",
      "outputs": [
        {
          "internalType": "bool",
          "name": "",
          "type": "bool"
        }
      ],
      "stateMutability": "view",
      "type": "function",
      "constant": true
    },
    {
      "inputs": [
        {
          "internalType": "address",
          "name": "",
          "type": "address"
        },
        {
          "internalType": "uint256",
          "name": "",
          "type": "uint256"
        }
      ],
      "name": "itensComprados",
      "outputs": [
        {
          "internalType": "uint256",
          "name": "itemId",
          "type": "uint256"
        },
        {
          "internalType": "enum Escrow.StatusItem",
          "name": "status",
          "type": "uint8"
        },
        {
          "internalType": "address",
          "name": "fornecedor",
          "type": "address"
        },
        {
          "internalType": "uint256",
          "name": "valorPago",
          "type": "uint256"
        }
      ],
      "stateMutability": "view",
      "type": "function",
      "constant": true
    },
    {
      "inputs": [
        {
          "internalType": "address",
          "name": "",
          "type": "address"
        },
        {
          "internalType": "uint256",
          "name": "",
          "type": "uint256"
        }
      ],
      "name": "itensPorFornecedor",
      "outputs": [
        {
          "internalType": "uint256",
          "name": "id",
          "type": "uint256"
        },
        {
          "internalType": "string",
          "name": "descricao",
          "type": "string"
        },
        {
          "internalType": "uint256",
          "name": "valor",
          "type": "uint256"
        },
        {
          "internalType": "uint256",
          "name": "quantidade",
          "type": "uint256"
        }
      ],
      "stateMutability": "view",
      "type": "function",
      "constant": true
    },
    {
      "inputs": [
        {
          "internalType": "address",
          "name": "",
          "type": "address"
        },
        {
          "internalType": "uint256",
          "name": "",
          "type": "uint256"
        }
      ],
      "name": "listaItensFornecedor",
      "outputs": [
        {
          "internalType": "uint256",
          "name": "",
          "type": "uint256"
        }
      ],
      "stateMutability": "view",
      "type": "function",
      "constant": true
    },
    {
      "inputs": [
        {
          "internalType": "bytes32",
          "name": "role",
          "type": "bytes32"
        },
        {
          "internalType": "address",
          "name": "callerConfirmation",
          "type": "address"
        }
      ],
      "name": "renounceRole",
      "outputs": [],
      "stateMutability": "nonpayable",
      "type": "function"
    },
    {
      "inputs": [
        {
          "internalType": "bytes32",
          "name": "role",
          "type": "bytes32"
        },
        {
          "internalType": "address",
          "name": "account",
          "type": "address"
        }
      ],
      "name": "revokeRole",
      "outputs": [],
      "stateMutability": "nonpayable",
      "type": "function"
    },
    {
      "inputs": [
        {
          "internalType": "bytes4",
          "name": "interfaceId",
          "type": "bytes4"
        }
      ],
      "name": "supportsInterface",
      "outputs": [
        {
          "internalType": "bool",
          "name": "",
          "type": "bool"
        }
      ],
      "stateMutability": "view",
      "type": "function",
      "constant": true
    },
    {
      "inputs": [
        {
          "internalType": "address",
          "name": "_conta",
          "type": "address"
        }
      ],
      "name": "concederPermissaoFornecedor",
      "outputs": [],
      "stateMutability": "nonpayable",
      "type": "function"
    },
    {
      "inputs": [
        {
          "internalType": "address",
          "name": "_conta",
          "type": "address"
        }
      ],
      "name": "removerPermissaoFornecedor",
      "outputs": [],
      "stateMutability": "nonpayable",
      "type": "function"
    },
    {
      "inputs": [],
      "name": "isFornecedor",
      "outputs": [
        {
          "internalType": "bool",
          "name": "",
          "type": "bool"
        }
      ],
      "stateMutability": "view",
      "type": "function",
      "constant": true
    },
    {
      "inputs": [],
      "name": "isAdmin",
      "outputs": [
        {
          "internalType": "bool",
          "name": "",
          "type": "bool"
        }
      ],
      "stateMutability": "view",
      "type": "function",
      "constant": true
    },
    {
      "inputs": [
        {
          "internalType": "string",
          "name": "_descricao",
          "type": "string"
        },
        {
          "internalType": "uint256",
          "name": "_valor",
          "type": "uint256"
        },
        {
          "internalType": "uint256",
          "name": "_quantidade",
          "type": "uint256"
        }
      ],
      "name": "adicionarItem",
      "outputs": [],
      "stateMutability": "nonpayable",
      "type": "function"
    },
    {
      "inputs": [
        {
          "internalType": "address",
          "name": "_fornecedor",
          "type": "address"
        }
      ],
      "name": "listarItens",
      "outputs": [
        {
          "components": [
            {
              "internalType": "uint256",
              "name": "id",
              "type": "uint256"
            },
            {
              "internalType": "string",
              "name": "descricao",
              "type": "string"
            },
            {
              "internalType": "uint256",
              "name": "valor",
              "type": "uint256"
            },
            {
              "internalType": "uint256",
              "name": "quantidade",
              "type": "uint256"
            }
          ],
          "internalType": "struct Escrow.Item[]",
          "name": "",
          "type": "tuple[]"
        }
      ],
      "stateMutability": "view",
      "type": "function",
      "constant": true
    },
    {
      "inputs": [
        {
          "internalType": "address",
          "name": "_fornecedor",
          "type": "address"
        },
        {
          "internalType": "uint256",
          "name": "_itemId",
          "type": "uint256"
        }
      ],
      "name": "comprarItem",
      "outputs": [],
      "stateMutability": "payable",
      "type": "function",
      "payable": true
    },
    {
      "inputs": [
        {
          "internalType": "uint256",
          "name": "_pedidoIndex",
          "type": "uint256"
        }
      ],
      "name": "confirmarRecebimento",
      "outputs": [],
      "stateMutability": "nonpayable",
      "type": "function"
    },
    {
      "inputs": [],
      "name": "sacarSaldo",
      "outputs": [],
      "stateMutability": "nonpayable",
      "type": "function"
    },
    {
      "inputs": [],
      "name": "listarPedidos",
      "outputs": [
        {
          "components": [
            {
              "internalType": "uint256",
              "name": "itemId",
              "type": "uint256"
            },
            {
              "internalType": "enum Escrow.StatusItem",
              "name": "status",
              "type": "uint8"
            },
            {
              "internalType": "address",
              "name": "fornecedor",
              "type": "address"
            },
            {
              "internalType": "uint256",
              "name": "valorPago",
              "type": "uint256"
            }
          ],
          "internalType": "struct Escrow.Pedido[]",
          "name": "",
          "type": "tuple[]"
        }
      ],
      "stateMutability": "view",
      "type": "function",
      "constant": true
    }
  ],
  "bytecode": "0x60806040526001805534801562000014575f80fd5b50620000295f801b336200003060201b60201c565b5062000195565b5f6200004383836200012b60201b60201c565b620001215760015f808581526020019081526020015f205f015f8473ffffffffffffffffffffffffffffffffffffffff1673ffffffffffffffffffffffffffffffffffffffff1681526020019081526020015f205f6101000a81548160ff021916908315150217905550620000bd6200018e60201b60201c565b73ffffffffffffffffffffffffffffffffffffffff168273ffffffffffffffffffffffffffffffffffffffff16847f2f8788117e7eff1d82e926ec794901d17c78024a50270940304540a733656f0d60405160405180910390a46001905062000125565b5f90505b92915050565b5f805f8481526020019081526020015f205f015f8373ffffffffffffffffffffffffffffffffffffffff1673ffffffffffffffffffffffffffffffffffffffff1681526020019081526020015f205f9054906101000a900460ff16905092915050565b5f33905090565b61294080620001a35f395ff3fe608060405260043610610134575f3560e01c806380151dd3116100aa578063b6db75a01161006e578063b6db75a01461042d578063bae9784714610457578063d16b92ae1461046d578063d547741f146104ac578063d6186d3b146104d4578063f0b3a977146104fe57610134565b806380151dd31461034d5780638807a5761461037557806391d148541461039f578063a217fddf146103db578063ad7a56721461040557610134565b8063248a9ca3116100fc578063248a9ca3146102355780632553ac25146102715780632f2ff15d1461029957806336568abe146102c157806340d7a112146102e95780635803f48b1461031157610134565b806301ffc9a71461013857806308aae725146101745780630d046a15146101b3578063138047c8146101dd578063203aa8fc146101f9575b5f80fd5b348015610143575f80fd5b5061015e6004803603810190610159919061191f565b61053a565b60405161016b9190611964565b60405180910390f35b34801561017f575f80fd5b5061019a60048036038101906101959190611a0a565b6105b3565b6040516101aa9493929190611ae1565b60405180910390f35b3480156101be575f80fd5b506101c7610670565b6040516101d49190611b43565b60405180910390f35b6101f760048036038101906101f29190611a0a565b610694565b005b348015610204575f80fd5b5061021f600480360381019061021a9190611b5c565b6109a0565b60405161022c9190611b87565b60405180910390f35b348015610240575f80fd5b5061025b60048036038101906102569190611bca565b6109b5565b6040516102689190611b43565b60405180910390f35b34801561027c575f80fd5b5061029760048036038101906102929190611bf5565b6109d1565b005b3480156102a4575f80fd5b506102bf60048036038101906102ba9190611c20565b610c5e565b005b3480156102cc575f80fd5b506102e760048036038101906102e29190611c20565b610c80565b005b3480156102f4575f80fd5b5061030f600480360381019061030a9190611b5c565b610cfb565b005b34801561031c575f80fd5b5061033760048036038101906103329190611b5c565b610d36565b6040516103449190611dd0565b60405180910390f35b348015610358575f80fd5b50610373600480360381019061036e9190611b5c565b610f82565b005b348015610380575f80fd5b50610389610fbd565b6040516103969190611f6d565b60405180910390f35b3480156103aa575f80fd5b506103c560048036038101906103c09190611c20565b6110f7565b6040516103d29190611964565b60405180910390f35b3480156103e6575f80fd5b506103ef61115a565b6040516103fc9190611b43565b60405180910390f35b348015610410575f80fd5b5061042b600480360381019061042691906120b9565b611160565b005b348015610438575f80fd5b50610441611367565b60405161044e9190611964565b60405180910390f35b348015610462575f80fd5b5061046b611379565b005b348015610478575f80fd5b50610493600480360381019061048e9190611a0a565b6114fe565b6040516104a39493929190612143565b60405180910390f35b3480156104b7575f80fd5b506104d260048036038101906104cd9190611c20565b611570565b005b3480156104df575f80fd5b506104e8611592565b6040516104f59190611964565b60405180910390f35b348015610509575f80fd5b50610524600480360381019061051f9190611a0a565b6115c2565b6040516105319190611b87565b60405180910390f35b5f7f7965db0b000000000000000000000000000000000000000000000000000000007bffffffffffffffffffffffffffffffffffffffffffffffffffffffff1916827bffffffffffffffffffffffffffffffffffffffffffffffffffffffff191614806105ac57506105ab826115ed565b5b9050919050565b6003602052815f5260405f20602052805f5260405f205f9150915050805f0154908060010180546105e3906121b3565b80601f016020809104026020016040519081016040528092919081815260200182805461060f906121b3565b801561065a5780601f106106315761010080835404028352916020019161065a565b820191905f5260205f20905b81548152906001019060200180831161063d57829003601f168201915b5050505050908060020154908060030154905084565b7f4c9be3f07a6d4b8d9a30ee174f3013f5828af8f3e9648a5e6a243775be68c5b781565b5f60035f8473ffffffffffffffffffffffffffffffffffffffff1673ffffffffffffffffffffffffffffffffffffffff1681526020019081526020015f205f8381526020019081526020015f2090505f816003015411610729576040517f08c379a00000000000000000000000000000000000000000000000000000000081526004016107209061222d565b60405180910390fd5b8060020154341015610770576040517f08c379a000000000000000000000000000000000000000000000000000000000815260040161076790612295565b60405180910390fd5b8273ffffffffffffffffffffffffffffffffffffffff163373ffffffffffffffffffffffffffffffffffffffff16036107de576040517f08c379a00000000000000000000000000000000000000000000000000000000081526004016107d590612323565b60405180910390fd5b6001816003015f8282546107f2919061236e565b925050819055505f60405180608001604052808481526020015f600181111561081e5761081d611e19565b5b81526020018573ffffffffffffffffffffffffffffffffffffffff16815260200134815250905060055f3373ffffffffffffffffffffffffffffffffffffffff1673ffffffffffffffffffffffffffffffffffffffff1681526020019081526020015f2081908060018154018082558091505060019003905f5260205f2090600302015f909190919091505f820151815f01556020820151816001015f6101000a81548160ff021916908360018111156108db576108da611e19565b5b021790555060408201518160010160016101000a81548173ffffffffffffffffffffffffffffffffffffffff021916908373ffffffffffffffffffffffffffffffffffffffff1602179055506060820151816002015550508373ffffffffffffffffffffffffffffffffffffffff163373ffffffffffffffffffffffffffffffffffffffff167f94d23b5a0524400ac289b9c356499149cee48f461da8161d6e9295fc94a6a5b585346040516109929291906123a1565b60405180910390a350505050565b6002602052805f5260405f205f915090505481565b5f805f8381526020019081526020015f20600101549050919050565b60055f3373ffffffffffffffffffffffffffffffffffffffff1673ffffffffffffffffffffffffffffffffffffffff1681526020019081526020015f20805490508110610a53576040517f08c379a0000000000000000000000000000000000000000000000000000000008152600401610a4a90612412565b60405180910390fd5b5f60055f3373ffffffffffffffffffffffffffffffffffffffff1673ffffffffffffffffffffffffffffffffffffffff1681526020019081526020015f208281548110610aa357610aa2612430565b5b905f5260205f20906003020190505f6001811115610ac457610ac3611e19565b5b816001015f9054906101000a900460ff166001811115610ae757610ae6611e19565b5b14610b27576040517f08c379a0000000000000000000000000000000000000000000000000000000008152600401610b1e906124a7565b60405180910390fd5b6001816001015f6101000a81548160ff02191690836001811115610b4e57610b4d611e19565b5b0217905550806002015460025f8360010160019054906101000a900473ffffffffffffffffffffffffffffffffffffffff1673ffffffffffffffffffffffffffffffffffffffff1673ffffffffffffffffffffffffffffffffffffffff1681526020019081526020015f205f828254610bc791906124c5565b925050819055508060010160019054906101000a900473ffffffffffffffffffffffffffffffffffffffff1673ffffffffffffffffffffffffffffffffffffffff163373ffffffffffffffffffffffffffffffffffffffff167f52689260731414f4f3c6b607969085c8716de085f2c75ca1b52bba492e018d6f835f0154604051610c529190611b87565b60405180910390a35050565b610c67826109b5565b610c7081611656565b610c7a838361166a565b50505050565b610c88611753565b73ffffffffffffffffffffffffffffffffffffffff168173ffffffffffffffffffffffffffffffffffffffff1614610cec576040517f6697b23200000000000000000000000000000000000000000000000000000000815260040160405180910390fd5b610cf6828261175a565b505050565b5f801b610d0781611656565b610d317f4c9be3f07a6d4b8d9a30ee174f3013f5828af8f3e9648a5e6a243775be68c5b78361166a565b505050565b60605f60045f8473ffffffffffffffffffffffffffffffffffffffff1673ffffffffffffffffffffffffffffffffffffffff1681526020019081526020015f20805480602002602001604051908101604052809291908181526020018280548015610dbe57602002820191905f5260205f20905b815481526020019060010190808311610daa575b505050505090505f815167ffffffffffffffff811115610de157610de0611f95565b5b604051908082528060200260200182016040528015610e1a57816020015b610e07611894565b815260200190600190039081610dff5790505b5090505f5b8251811015610f775760035f8673ffffffffffffffffffffffffffffffffffffffff1673ffffffffffffffffffffffffffffffffffffffff1681526020019081526020015f205f848381518110610e7957610e78612430565b5b602002602001015181526020019081526020015f206040518060800160405290815f8201548152602001600182018054610eb2906121b3565b80601f0160208091040260200160405190810160405280929190818152602001828054610ede906121b3565b8015610f295780601f10610f0057610100808354040283529160200191610f29565b820191905f5260205f20905b815481529060010190602001808311610f0c57829003601f168201915b5050505050815260200160028201548152602001600382015481525050828281518110610f5957610f58612430565b5b60200260200101819052508080610f6f906124f8565b915050610e1f565b508092505050919050565b5f801b610f8e81611656565b610fb87f4c9be3f07a6d4b8d9a30ee174f3013f5828af8f3e9648a5e6a243775be68c5b78361175a565b505050565b606060055f3373ffffffffffffffffffffffffffffffffffffffff1673ffffffffffffffffffffffffffffffffffffffff1681526020019081526020015f20805480602002602001604051908101604052809291908181526020015f905b828210156110ee578382905f5260205f2090600302016040518060800160405290815f8201548152602001600182015f9054906101000a900460ff16600181111561106957611068611e19565b5b600181111561107b5761107a611e19565b5b81526020016001820160019054906101000a900473ffffffffffffffffffffffffffffffffffffffff1673ffffffffffffffffffffffffffffffffffffffff1673ffffffffffffffffffffffffffffffffffffffff1681526020016002820154815250508152602001906001019061101b565b50505050905090565b5f805f8481526020019081526020015f205f015f8373ffffffffffffffffffffffffffffffffffffffff1673ffffffffffffffffffffffffffffffffffffffff1681526020019081526020015f205f9054906101000a900460ff16905092915050565b5f801b81565b5f801b61116c81611656565b5f83116111ae576040517f08c379a00000000000000000000000000000000000000000000000000000000081526004016111a590612589565b60405180910390fd5b5f82116111f0576040517f08c379a00000000000000000000000000000000000000000000000000000000081526004016111e7906125f1565b60405180910390fd5b5f60015f815480929190611203906124f8565b91905055905060405180608001604052808281526020018681526020018581526020018481525060035f3373ffffffffffffffffffffffffffffffffffffffff1673ffffffffffffffffffffffffffffffffffffffff1681526020019081526020015f205f8381526020019081526020015f205f820151815f0155602082015181600101908161129391906127ac565b50604082015181600201556060820151816003015590505060045f3373ffffffffffffffffffffffffffffffffffffffff1673ffffffffffffffffffffffffffffffffffffffff1681526020019081526020015f2081908060018154018082558091505060019003905f5260205f20015f90919091909150553373ffffffffffffffffffffffffffffffffffffffff167fb9b71c2c810448bd6babefc30710cc909ecfa0dfb635fa42e10e491b7c8ab38e828787876040516113589493929190611ae1565b60405180910390a25050505050565b5f6113745f801b336110f7565b905090565b7f4c9be3f07a6d4b8d9a30ee174f3013f5828af8f3e9648a5e6a243775be68c5b76113a381611656565b5f60025f3373ffffffffffffffffffffffffffffffffffffffff1673ffffffffffffffffffffffffffffffffffffffff1681526020019081526020015f205490505f8111611426576040517f08c379a000000000000000000000000000000000000000000000000000000000815260040161141d906128c5565b60405180910390fd5b5f60025f3373ffffffffffffffffffffffffffffffffffffffff1673ffffffffffffffffffffffffffffffffffffffff1681526020019081526020015f20819055503373ffffffffffffffffffffffffffffffffffffffff166108fc8290811502906040515f60405180830381858888f193505050501580156114ab573d5f803e3d5ffd5b503373ffffffffffffffffffffffffffffffffffffffff167f5fc3b54c181812cec14a4124731c2237ac79ece8eb1febb924fbd79dd36d4ae5826040516114f29190611b87565b60405180910390a25050565b6005602052815f5260405f208181548110611517575f80fd5b905f5260205f2090600302015f9150915050805f015490806001015f9054906101000a900460ff16908060010160019054906101000a900473ffffffffffffffffffffffffffffffffffffffff16908060020154905084565b611579826109b5565b61158281611656565b61158c838361175a565b50505050565b5f6115bd7f4c9be3f07a6d4b8d9a30ee174f3013f5828af8f3e9648a5e6a243775be68c5b7336110f7565b905090565b6004602052815f5260405f2081815481106115db575f80fd5b905f5260205f20015f91509150505481565b5f7f01ffc9a7000000000000000000000000000000000000000000000000000000007bffffffffffffffffffffffffffffffffffffffffffffffffffffffff1916827bffffffffffffffffffffffffffffffffffffffffffffffffffffffff1916149050919050565b61166781611662611753565b611843565b50565b5f61167583836110f7565b6117495760015f808581526020019081526020015f205f015f8473ffffffffffffffffffffffffffffffffffffffff1673ffffffffffffffffffffffffffffffffffffffff1681526020019081526020015f205f6101000a81548160ff0219169083151502179055506116e6611753565b73ffffffffffffffffffffffffffffffffffffffff168273ffffffffffffffffffffffffffffffffffffffff16847f2f8788117e7eff1d82e926ec794901d17c78024a50270940304540a733656f0d60405160405180910390a46001905061174d565b5f90505b92915050565b5f33905090565b5f61176583836110f7565b15611839575f805f8581526020019081526020015f205f015f8473ffffffffffffffffffffffffffffffffffffffff1673ffffffffffffffffffffffffffffffffffffffff1681526020019081526020015f205f6101000a81548160ff0219169083151502179055506117d6611753565b73ffffffffffffffffffffffffffffffffffffffff168273ffffffffffffffffffffffffffffffffffffffff16847ff6391f5c32d9c69d2a47ea670b442974b53935d1edc7fd64eb21e047a839171b60405160405180910390a46001905061183d565b5f90505b92915050565b61184d82826110f7565b6118905780826040517fe2517d3f0000000000000000000000000000000000000000000000000000000081526004016118879291906128e3565b60405180910390fd5b5050565b60405180608001604052805f8152602001606081526020015f81526020015f81525090565b5f604051905090565b5f80fd5b5f80fd5b5f7fffffffff0000000000000000000000000000000000000000000000000000000082169050919050565b6118fe816118ca565b8114611908575f80fd5b50565b5f81359050611919816118f5565b92915050565b5f60208284031215611934576119336118c2565b5b5f6119418482850161190b565b91505092915050565b5f8115159050919050565b61195e8161194a565b82525050565b5f6020820190506119775f830184611955565b92915050565b5f73ffffffffffffffffffffffffffffffffffffffff82169050919050565b5f6119a68261197d565b9050919050565b6119b68161199c565b81146119c0575f80fd5b50565b5f813590506119d1816119ad565b92915050565b5f819050919050565b6119e9816119d7565b81146119f3575f80fd5b50565b5f81359050611a04816119e0565b92915050565b5f8060408385031215611a2057611a1f6118c2565b5b5f611a2d858286016119c3565b9250506020611a3e858286016119f6565b9150509250929050565b611a51816119d7565b82525050565b5f81519050919050565b5f82825260208201905092915050565b5f5b83811015611a8e578082015181840152602081019050611a73565b5f8484015250505050565b5f601f19601f8301169050919050565b5f611ab382611a57565b611abd8185611a61565b9350611acd818560208601611a71565b611ad681611a99565b840191505092915050565b5f608082019050611af45f830187611a48565b8181036020830152611b068186611aa9565b9050611b156040830185611a48565b611b226060830184611a48565b95945050505050565b5f819050919050565b611b3d81611b2b565b82525050565b5f602082019050611b565f830184611b34565b92915050565b5f60208284031215611b7157611b706118c2565b5b5f611b7e848285016119c3565b91505092915050565b5f602082019050611b9a5f830184611a48565b92915050565b611ba981611b2b565b8114611bb3575f80fd5b50565b5f81359050611bc481611ba0565b92915050565b5f60208284031215611bdf57611bde6118c2565b5b5f611bec84828501611bb6565b91505092915050565b5f60208284031215611c0a57611c096118c2565b5b5f611c17848285016119f6565b91505092915050565b5f8060408385031215611c3657611c356118c2565b5b5f611c4385828601611bb6565b9250506020611c54858286016119c3565b9150509250929050565b5f81519050919050565b5f82825260208201905092915050565b5f819050602082019050919050565b611c90816119d7565b82525050565b5f82825260208201905092915050565b5f611cb082611a57565b611cba8185611c96565b9350611cca818560208601611a71565b611cd381611a99565b840191505092915050565b5f608083015f830151611cf35f860182611c87565b5060208301518482036020860152611d0b8282611ca6565b9150506040830151611d206040860182611c87565b506060830151611d336060860182611c87565b508091505092915050565b5f611d498383611cde565b905092915050565b5f602082019050919050565b5f611d6782611c5e565b611d718185611c68565b935083602082028501611d8385611c78565b805f5b85811015611dbe5784840389528151611d9f8582611d3e565b9450611daa83611d51565b925060208a01995050600181019050611d86565b50829750879550505050505092915050565b5f6020820190508181035f830152611de88184611d5d565b905092915050565b5f81519050919050565b5f82825260208201905092915050565b5f819050602082019050919050565b7f4e487b71000000000000000000000000000000000000000000000000000000005f52602160045260245ffd5b60028110611e5757611e56611e19565b5b50565b5f819050611e6782611e46565b919050565b5f611e7682611e5a565b9050919050565b611e8681611e6c565b82525050565b611e958161199c565b82525050565b608082015f820151611eaf5f850182611c87565b506020820151611ec26020850182611e7d565b506040820151611ed56040850182611e8c565b506060820151611ee86060850182611c87565b50505050565b5f611ef98383611e9b565b60808301905092915050565b5f602082019050919050565b5f611f1b82611df0565b611f258185611dfa565b9350611f3083611e0a565b805f5b83811015611f60578151611f478882611eee565b9750611f5283611f05565b925050600181019050611f33565b5085935050505092915050565b5f6020820190508181035f830152611f858184611f11565b905092915050565b5f80fd5b5f80fd5b7f4e487b71000000000000000000000000000000000000000000000000000000005f52604160045260245ffd5b611fcb82611a99565b810181811067ffffffffffffffff82111715611fea57611fe9611f95565b5b80604052505050565b5f611ffc6118b9565b90506120088282611fc2565b919050565b5f67ffffffffffffffff82111561202757612026611f95565b5b61203082611a99565b9050602081019050919050565b828183375f83830152505050565b5f61205d6120588461200d565b611ff3565b90508281526020810184848401111561207957612078611f91565b5b61208484828561203d565b509392505050565b5f82601f8301126120a05761209f611f8d565b5b81356120b084826020860161204b565b91505092915050565b5f805f606084860312156120d0576120cf6118c2565b5b5f84013567ffffffffffffffff8111156120ed576120ec6118c6565b5b6120f98682870161208c565b935050602061210a868287016119f6565b925050604061211b868287016119f6565b9150509250925092565b61212e81611e6c565b82525050565b61213d8161199c565b82525050565b5f6080820190506121565f830187611a48565b6121636020830186612125565b6121706040830185612134565b61217d6060830184611a48565b95945050505050565b7f4e487b71000000000000000000000000000000000000000000000000000000005f52602260045260245ffd5b5f60028204905060018216806121ca57607f821691505b6020821081036121dd576121dc612186565b5b50919050565b7f4974656d206573676f7461646f000000000000000000000000000000000000005f82015250565b5f612217600d83611a61565b9150612222826121e3565b602082019050919050565b5f6020820190508181035f8301526122448161220b565b9050919050565b7f56616c6f7220696e737566696369656e746500000000000000000000000000005f82015250565b5f61227f601283611a61565b915061228a8261224b565b602082019050919050565b5f6020820190508181035f8301526122ac81612273565b9050919050565b7f466f726e656365646f72206e616f20706f646520636f6d7072617220736575205f8201527f70726f7072696f206974656d0000000000000000000000000000000000000000602082015250565b5f61230d602c83611a61565b9150612318826122b3565b604082019050919050565b5f6020820190508181035f83015261233a81612301565b9050919050565b7f4e487b71000000000000000000000000000000000000000000000000000000005f52601160045260245ffd5b5f612378826119d7565b9150612383836119d7565b925082820390508181111561239b5761239a612341565b5b92915050565b5f6040820190506123b45f830185611a48565b6123c16020830184611a48565b9392505050565b7f50656469646f20696e6578697374656e746500000000000000000000000000005f82015250565b5f6123fc601283611a61565b9150612407826123c8565b602082019050919050565b5f6020820190508181035f830152612429816123f0565b9050919050565b7f4e487b71000000000000000000000000000000000000000000000000000000005f52603260045260245ffd5b7f50656469646f206a612066696e616c697a61646f0000000000000000000000005f82015250565b5f612491601483611a61565b915061249c8261245d565b602082019050919050565b5f6020820190508181035f8301526124be81612485565b9050919050565b5f6124cf826119d7565b91506124da836119d7565b92508282019050808211156124f2576124f1612341565b5b92915050565b5f612502826119d7565b91507fffffffffffffffffffffffffffffffffffffffffffffffffffffffffffffffff820361253457612533612341565b5b600182019050919050565b7f56616c6f7220696e76616c69646f0000000000000000000000000000000000005f82015250565b5f612573600e83611a61565b915061257e8261253f565b602082019050919050565b5f6020820190508181035f8301526125a081612567565b9050919050565b7f5175616e74696461646520696e76616c696461000000000000000000000000005f82015250565b5f6125db601383611a61565b91506125e6826125a7565b602082019050919050565b5f6020820190508181035f830152612608816125cf565b9050919050565b5f819050815f5260205f209050919050565b5f6020601f8301049050919050565b5f82821b905092915050565b5f6008830261266b7fffffffffffffffffffffffffffffffffffffffffffffffffffffffffffffffff82612630565b6126758683612630565b95508019841693508086168417925050509392505050565b5f819050919050565b5f6126b06126ab6126a6846119d7565b61268d565b6119d7565b9050919050565b5f819050919050565b6126c983612696565b6126dd6126d5826126b7565b84845461263c565b825550505050565b5f90565b6126f16126e5565b6126fc8184846126c0565b505050565b5b8181101561271f576127145f826126e9565b600181019050612702565b5050565b601f821115612764576127358161260f565b61273e84612621565b8101602085101561274d578190505b61276161275985612621565b830182612701565b50505b505050565b5f82821c905092915050565b5f6127845f1984600802612769565b1980831691505092915050565b5f61279c8383612775565b9150826002028217905092915050565b6127b582611a57565b67ffffffffffffffff8111156127ce576127cd611f95565b5b6127d882546121b3565b6127e3828285612723565b5f60209050601f831160018114612814575f8415612802578287015190505b61280c8582612791565b865550612873565b601f1984166128228661260f565b5f5b8281101561284957848901518255600182019150602085019450602081019050612824565b868310156128665784890151612862601f891682612775565b8355505b6001600288020188555050505b505050505050565b7f4e656e68756d2073616c646f20646973706f6e6976656c0000000000000000005f82015250565b5f6128af601783611a61565b91506128ba8261287b565b602082019050919050565b5f6020820190508181035f8301526128dc816128a3565b9050919050565b5f6040820190506128f65f830185612134565b6129036020830184611b34565b939250505056fea2646970667358221220f5e194e24f33d97cf37c74f3fda2008f29e0f5bce728d988b1c047520b97d00c64736f6c63430008150033",
  "immutableReferences": {},
  "source": "// SPDX-License-Identifier: MIT\npragma solidity >=0.8.2 <0.9.0;\n\nimport \"@openzeppelin/contracts/access/AccessControl.sol\";\n\ncontract Escrow is AccessControl{\n    bytes32 public constant FORNECEDOR_ROLE = keccak256(\"FORNECEDOR_ROLE\");\n\n    enum StatusItem { PENDENTE, FINALIZADO }\n\n    uint256 private proximoItemId = 1;\n\n    struct Item {\n        uint256 id;\n        string descricao;\n        uint256 valor;\n        uint256 quantidade;\n    }\n\n    struct Pedido {\n        uint itemId;\n        StatusItem status;\n        address fornecedor;\n        uint256 valorPago;\n    }\n\n    mapping(address => uint256) public cofreFornecedor;\n    mapping(address => mapping(uint256 => Item)) public itensPorFornecedor;\n    mapping(address => uint256[]) public listaItensFornecedor;\n    mapping(address => Pedido[]) public itensComprados;\n\n    event ItemAdicionado(address indexed fornecedor, uint256 itemId, string descricao, uint256 valor, uint256 quantidade);\n    event ItemComprado(address indexed comprador, address indexed fornecedor, uint256 itemId, uint256 valorPago);\n    event PedidoConfirmado(address indexed comprador, address indexed fornecedor, uint256 itemId);\n    event SaldoSacado(address indexed fornecedor, uint256 valor);\n\n    constructor(){\n        _grantRole(DEFAULT_ADMIN_ROLE, msg.sender);\n    }\n\n    function concederPermissaoFornecedor(address _conta) public onlyRole(DEFAULT_ADMIN_ROLE){\n        _grantRole(FORNECEDOR_ROLE, _conta);\n    }\n\n    function removerPermissaoFornecedor(address _conta) public onlyRole(DEFAULT_ADMIN_ROLE){\n        _revokeRole(FORNECEDOR_ROLE, _conta);\n    }\n\n    function isFornecedor() public view returns(bool){\n        return hasRole(FORNECEDOR_ROLE, msg.sender);\n    }\n\n    function isAdmin() public view returns(bool){\n        return hasRole(DEFAULT_ADMIN_ROLE, msg.sender);\n    }\n\n    function adicionarItem(\n        string memory _descricao, \n        uint256 _valor, \n        uint256 _quantidade) public onlyRole(DEFAULT_ADMIN_ROLE){\n        require(_valor > 0, \"Valor invalido\");\n        require(_quantidade > 0, \"Quantidade invalida\");\n\n        uint256 produtoId = proximoItemId++;\n\n        itensPorFornecedor[msg.sender][produtoId] = Item({\n            id: produtoId,\n            descricao: _descricao,\n            valor: _valor,\n            quantidade: _quantidade\n        });\n\n        listaItensFornecedor[msg.sender].push(produtoId);\n\n        emit ItemAdicionado(msg.sender, produtoId, _descricao, _valor, _quantidade);\n    }\n\n    function listarItens(address _fornecedor) public view returns (Item[] memory) {\n        uint256[] memory ids = listaItensFornecedor[_fornecedor];\n        Item[] memory resultado = new Item[](ids.length);\n\n        for (uint256 i = 0; i < ids.length; i++) {\n            resultado[i] = itensPorFornecedor[_fornecedor][ids[i]];\n        }\n\n        return resultado;\n    }\n\n    function comprarItem(address _fornecedor, uint256 _itemId) external payable {\n        Item storage item = itensPorFornecedor[_fornecedor][_itemId];\n        require(item.quantidade > 0, \"Item esgotado\");\n        require(msg.value >= item.valor, \"Valor insuficiente\");\n        require(msg.sender != _fornecedor, \"Fornecedor nao pode comprar seu proprio item\");\n\n        item.quantidade -= 1;\n\n        Pedido memory pedido = Pedido({\n            itemId: _itemId,\n            status: StatusItem.PENDENTE,\n            fornecedor: _fornecedor,\n            valorPago: msg.value\n        });\n\n        itensComprados[msg.sender].push(pedido);\n\n        emit ItemComprado(msg.sender, _fornecedor, _itemId, msg.value);\n    }\n\n    function confirmarRecebimento(uint256 _pedidoIndex) external {\n        require(_pedidoIndex < itensComprados[msg.sender].length, \"Pedido inexistente\");\n\n        Pedido storage pedido = itensComprados[msg.sender][_pedidoIndex];\n        require(pedido.status == StatusItem.PENDENTE, \"Pedido ja finalizado\");\n\n        pedido.status = StatusItem.FINALIZADO;\n        cofreFornecedor[pedido.fornecedor] += pedido.valorPago;\n        emit PedidoConfirmado(msg.sender, pedido.fornecedor, pedido.itemId);\n    }\n\n    function sacarSaldo() external onlyRole(FORNECEDOR_ROLE) {\n        uint256 saldo = cofreFornecedor[msg.sender];\n        require(saldo > 0, \"Nenhum saldo disponivel\");\n\n        cofreFornecedor[msg.sender] = 0;\n        payable(msg.sender).transfer(saldo);\n        emit SaldoSacado(msg.sender, saldo);\n    }\n\n    function listarPedidos() external view returns (Pedido[] memory) {\n        return itensComprados[msg.sender];\n    }\n\n}",
  "sourcePath": "/home/willian_samsung/Documentos/escrow/truffle/contracts/Escrow.sol",
  "compiler": {
    "name": "solc",
    "version": "0.8.21+commit.d9974bed.Emscripten.clang"
  },
  "schemaVersion": "3.4.16",
  "updatedAt": "2025-08-11T01:51:23.839Z",
  "networkType": "ethereum",
  "devdoc": {
    "errors": {
      "AccessControlBadConfirmation()": [
        {
          "details": "The caller of a function is not the expected one. NOTE: Don't confuse with {AccessControlUnauthorizedAccount}."
        }
      ],
      "AccessControlUnauthorizedAccount(address,bytes32)": [
        {
          "details": "The `account` is missing a role."
        }
      ]
    },
    "events": {
      "RoleAdminChanged(bytes32,bytes32,bytes32)": {
        "details": "Emitted when `newAdminRole` is set as ``role``'s admin role, replacing `previousAdminRole` `DEFAULT_ADMIN_ROLE` is the starting admin for all roles, despite {RoleAdminChanged} not being emitted to signal this."
      },
      "RoleGranted(bytes32,address,address)": {
        "details": "Emitted when `account` is granted `role`. `sender` is the account that originated the contract call. This account bears the admin role (for the granted role). Expected in cases where the role was granted using the internal {AccessControl-_grantRole}."
      },
      "RoleRevoked(bytes32,address,address)": {
        "details": "Emitted when `account` is revoked `role`. `sender` is the account that originated the contract call:   - if using `revokeRole`, it is the admin role bearer   - if using `renounceRole`, it is the role bearer (i.e. `account`)"
      }
    },
    "kind": "dev",
    "methods": {
      "getRoleAdmin(bytes32)": {
        "details": "Returns the admin role that controls `role`. See {grantRole} and {revokeRole}. To change a role's admin, use {_setRoleAdmin}."
      },
      "grantRole(bytes32,address)": {
        "details": "Grants `role` to `account`. If `account` had not been already granted `role`, emits a {RoleGranted} event. Requirements: - the caller must have ``role``'s admin role. May emit a {RoleGranted} event."
      },
      "hasRole(bytes32,address)": {
        "details": "Returns `true` if `account` has been granted `role`."
      },
      "renounceRole(bytes32,address)": {
        "details": "Revokes `role` from the calling account. Roles are often managed via {grantRole} and {revokeRole}: this function's purpose is to provide a mechanism for accounts to lose their privileges if they are compromised (such as when a trusted device is misplaced). If the calling account had been revoked `role`, emits a {RoleRevoked} event. Requirements: - the caller must be `callerConfirmation`. May emit a {RoleRevoked} event."
      },
      "revokeRole(bytes32,address)": {
        "details": "Revokes `role` from `account`. If `account` had been granted `role`, emits a {RoleRevoked} event. Requirements: - the caller must have ``role``'s admin role. May emit a {RoleRevoked} event."
      },
      "supportsInterface(bytes4)": {
        "details": "Returns true if this contract implements the interface defined by `interfaceId`. See the corresponding https://eips.ethereum.org/EIPS/eip-165#how-interfaces-are-identified[ERC section] to learn more about how these ids are created. This function call must use less than 30 000 gas."
      }
    },
    "version": 1
  },
  "userdoc": {
    "kind": "user",
    "methods": {},
    "version": 1
  }
}