{
  "contractName": "Contrato",
  "abi": [
    {
      "anonymous": false,
      "inputs": [
        {
          "indexed": true,
          "internalType": "address",
          "name": "fornecedor",
          "type": "address"
        },
        {
          "indexed": false,
          "internalType": "string",
          "name": "descricao",
          "type": "string"
        }
      ],
      "name": "Teste",
      "type": "event"
    },
    {
      "inputs": [
        {
          "internalType": "string",
          "name": "_descricao",
          "type": "string"
        }
      ],
      "name": "teste",
      "outputs": [],
      "stateMutability": "nonpayable",
      "type": "function"
    }
  ],
  "bytecode": "0x608060405234801561000f575f80fd5b506102fe8061001d5f395ff3fe608060405234801561000f575f80fd5b5060043610610029575f3560e01c8063b56e520f1461002d575b5f80fd5b610047600480360381019061004291906101e7565b610049565b005b3373ffffffffffffffffffffffffffffffffffffffff167fcc393434cbdf270d4706669da6971ee1e0c0b4d5e72803b53aff0811f84253e98260405161008f91906102a8565b60405180910390a250565b5f604051905090565b5f80fd5b5f80fd5b5f80fd5b5f80fd5b5f601f19601f8301169050919050565b7f4e487b71000000000000000000000000000000000000000000000000000000005f52604160045260245ffd5b6100f9826100b3565b810181811067ffffffffffffffff82111715610118576101176100c3565b5b80604052505050565b5f61012a61009a565b905061013682826100f0565b919050565b5f67ffffffffffffffff821115610155576101546100c3565b5b61015e826100b3565b9050602081019050919050565b828183375f83830152505050565b5f61018b6101868461013b565b610121565b9050828152602081018484840111156101a7576101a66100af565b5b6101b284828561016b565b509392505050565b5f82601f8301126101ce576101cd6100ab565b5b81356101de848260208601610179565b91505092915050565b5f602082840312156101fc576101fb6100a3565b5b5f82013567ffffffffffffffff811115610219576102186100a7565b5b610225848285016101ba565b91505092915050565b5f81519050919050565b5f82825260208201905092915050565b5f5b8381101561026557808201518184015260208101905061024a565b5f8484015250505050565b5f61027a8261022e565b6102848185610238565b9350610294818560208601610248565b61029d816100b3565b840191505092915050565b5f6020820190508181035f8301526102c08184610270565b90509291505056fea26469706673582212209549bef00b245a7f1076d44971680c9225bce8bc0dfe9b2cbf10780f8997af6764736f6c63430008150033",
  "immutableReferences": {},
  "source": "// SPDX-License-Identifier: MIT\npragma solidity >=0.8.2 <0.9.0;\n\ncontract Contrato{\n    event Teste(address indexed fornecedor, string descricao);\n    function teste(string memory _descricao) external {\n        emit Teste(msg.sender, _descricao);\n    }\n\n    \n}",
  "sourcePath": "/home/willian_samsung/Documentos/escrow/truffle/contracts/Contrato.sol",
  "compiler": {
    "name": "solc",
    "version": "0.8.21+commit.d9974bed.Emscripten.clang"
  },
  "schemaVersion": "3.4.16",
  "updatedAt": "2025-08-11T01:51:23.833Z",
  "networkType": "ethereum",
  "devdoc": {
    "kind": "dev",
    "methods": {},
    "version": 1
  },
  "userdoc": {
    "kind": "user",
    "methods": {},
    "version": 1
  }
}